{"project/contracts/GPULease.sol":{"GPULease":{"abi":[{"inputs":[{"internalType":"address","name":"credit_","type":"address"},{"internalType":"address","name":"treasury_","type":"address"}],"stateMutability":"nonpayable","type":"constructor"},{"inputs":[{"internalType":"address","name":"owner","type":"address"}],"name":"OwnableInvalidOwner","type":"error"},{"inputs":[{"internalType":"address","name":"account","type":"address"}],"name":"OwnableUnauthorizedAccount","type":"error"},{"inputs":[{"internalType":"address","name":"token","type":"address"}],"name":"SafeERC20FailedOperation","type":"error"},{"anonymous":false,"inputs":[{"indexed":true,"internalType":"address","name":"user","type":"address"},{"indexed":false,"internalType":"uint256","name":"amount","type":"uint256"}],"name":"Deposit","type":"event"},{"anonymous":false,"inputs":[{"indexed":false,"internalType":"uint256","name":"leaseId","type":"uint256"}],"name":"LeaseCompleted","type":"event"},{"anonymous":false,"inputs":[{"indexed":false,"internalType":"uint256","name":"leaseId","type":"uint256"}],"name":"LeasePaused","type":"event"},{"anonymous":false,"inputs":[{"indexed":false,"internalType":"uint256","name":"leaseId","type":"uint256"}],"name":"LeaseResumed","type":"event"},{"anonymous":false,"inputs":[{"indexed":false,"internalType":"uint256","name":"leaseId","type":"uint256"},{"indexed":false,"internalType":"address","name":"user","type":"address"},{"indexed":false,"internalType":"address","name":"provider","type":"address"},{"indexed":false,"internalType":"uint256","name":"duration","type":"uint256"},{"indexed":false,"internalType":"uint256","name":"amount","type":"uint256"}],"name":"LeaseStarted","type":"event"},{"anonymous":false,"inputs":[{"indexed":true,"internalType":"address","name":"previousOwner","type":"address"},{"indexed":true,"internalType":"address","name":"newOwner","type":"address"}],"name":"OwnershipTransferred","type":"event"},{"anonymous":false,"inputs":[{"indexed":true,"internalType":"address","name":"user","type":"address"},{"indexed":false,"internalType":"uint256","name":"amount","type":"uint256"}],"name":"Withdraw","type":"event"},{"inputs":[{"internalType":"address","name":"","type":"address"}],"name":"balances","outputs":[{"internalType":"uint256","name":"","type":"uint256"}],"stateMutability":"view","type":"function"},{"inputs":[{"internalType":"uint256","name":"_leaseId","type":"uint256"}],"name":"completeLease","outputs":[],"stateMutability":"nonpayable","type":"function"},{"inputs":[],"name":"credit","outputs":[{"internalType":"contract IERC20","name":"","type":"address"}],"stateMutability":"view","type":"function"},{"inputs":[{"internalType":"uint256","name":"amount","type":"uint256"}],"name":"deposit","outputs":[],"stateMutability":"nonpayable","type":"function"},{"inputs":[{"internalType":"uint256","name":"","type":"uint256"}],"name":"frozenFunds","outputs":[{"internalType":"uint256","name":"","type":"uint256"}],"stateMutability":"view","type":"function"},{"inputs":[{"internalType":"address","name":"user","type":"address"}],"name":"getUserFrozenFunds","outputs":[{"components":[{"internalType":"uint256","name":"leaseId","type":"uint256"},{"internalType":"uint256","name":"amount","type":"uint256"}],"internalType":"struct GPULease.FrozenFundsInfo[]","name":"result","type":"tuple[]"}],"stateMutability":"view","type":"function"},{"inputs":[],"name":"leaseCount","outputs":[{"internalType":"uint256","name":"","type":"uint256"}],"stateMutability":"view","type":"function"},{"inputs":[{"internalType":"uint256","name":"","type":"uint256"}],"name":"leases","outputs":[{"internalType":"address","name":"user","type":"address"},{"internalType":"address","name":"provider","type":"address"},{"internalType":"uint256","name":"startTime","type":"uint256"},{"internalType":"uint256","name":"storagePricePerSecond","type":"uint256"},{"internalType":"uint256","name":"computePricePerSecond","type":"uint256"},{"internalType":"bool","name":"active","type":"bool"},{"internalType":"bool","name":"completed","type":"bool"},{"internalType":"bool","name":"paused","type":"bool"},{"internalType":"uint256","name":"pausedAt","type":"uint256"},{"internalType":"uint256","name":"pausedDuration","type":"uint256"}],"stateMutability":"view","type":"function"},{"inputs":[],"name":"owner","outputs":[{"internalType":"address","name":"","type":"address"}],"stateMutability":"view","type":"function"},{"inputs":[{"internalType":"uint256","name":"_leaseId","type":"uint256"}],"name":"pauseLease","outputs":[],"stateMutability":"nonpayable","type":"function"},{"inputs":[],"name":"platformFeePercentage","outputs":[{"internalType":"uint256","name":"","type":"uint256"}],"stateMutability":"view","type":"function"},{"inputs":[],"name":"renounceOwnership","outputs":[],"stateMutability":"nonpayable","type":"function"},{"inputs":[{"internalType":"uint256","name":"_leaseId","type":"uint256"}],"name":"resumeLease","outputs":[],"stateMutability":"nonpayable","type":"function"},{"inputs":[{"internalType":"uint256","name":"_feePercentage","type":"uint256"}],"name":"setPlatformFee","outputs":[],"stateMutability":"nonpayable","type":"function"},{"inputs":[{"internalType":"address","name":"newTreasury","type":"address"}],"name":"setTreasury","outputs":[],"stateMutability":"nonpayable","type":"function"},{"inputs":[{"internalType":"uint256","name":"_duration","type":"uint256"},{"internalType":"uint256","name":"_storagePricePerSecond","type":"uint256"},{"internalType":"uint256","name":"_computePricePerSecond","type":"uint256"},{"internalType":"address","name":"_provider","type":"address"},{"internalType":"address","name":"_user","type":"address"}],"name":"startLease","outputs":[{"internalType":"uint256","name":"leaseId","type":"uint256"}],"stateMutability":"nonpayable","type":"function"},{"inputs":[{"internalType":"address","name":"newOwner","type":"address"}],"name":"transferOwnership","outputs":[],"stateMutability":"nonpayable","type":"function"},{"inputs":[],"name":"treasury","outputs":[{"internalType":"address","name":"","type":"address"}],"stateMutability":"view","type":"function"},{"inputs":[{"internalType":"address","name":"","type":"address"},{"internalType":"uint256","name":"","type":"uint256"}],"name":"userActiveLeases","outputs":[{"internalType":"uint256","name":"","type":"uint256"}],"stateMutability":"view","type":"function"},{"inputs":[{"internalType":"address","name":"user","type":"address"}],"name":"userBalance","outputs":[{"internalType":"uint256","name":"","type":"uint256"}],"stateMutability":"view","type":"function"},{"inputs":[{"internalType":"uint256","name":"amount","type":"uint256"}],"name":"withdraw","outputs":[],"stateMutability":"nonpayable","type":"function"}],"evm":{"bytecode":{"linkReferences":{},"object":"60806040525f6007556005600855348015610018575f5ffd5b50604051612b8f380380612b8f833981810160405281019061003a9190610261565b335f73ffffffffffffffffffffffffffffffffffffffff168173ffffffffffffffffffffffffffffffffffffffff16036100ab575f6040517f1e4fbdf70000000000000000000000000000000000000000000000000000000081526004016100a291906102ae565b60405180910390fd5b6100ba8161014260201b60201c565b508160015f6101000a81548173ffffffffffffffffffffffffffffffffffffffff021916908373ffffffffffffffffffffffffffffffffffffffff1602179055508060025f6101000a81548173ffffffffffffffffffffffffffffffffffffffff021916908373ffffffffffffffffffffffffffffffffffffffff16021790555050506102c7565b5f5f5f9054906101000a900473ffffffffffffffffffffffffffffffffffffffff169050815f5f6101000a81548173ffffffffffffffffffffffffffffffffffffffff021916908373ffffffffffffffffffffffffffffffffffffffff1602179055508173ffffffffffffffffffffffffffffffffffffffff168173ffffffffffffffffffffffffffffffffffffffff167f8be0079c531659141344cd1fd0a4f28419497f9722a3daafe3b4186f6b6457e060405160405180910390a35050565b5f5ffd5b5f73ffffffffffffffffffffffffffffffffffffffff82169050919050565b5f61023082610207565b9050919050565b61024081610226565b811461024a575f5ffd5b50565b5f8151905061025b81610237565b92915050565b5f5f6040838503121561027757610276610203565b5b5f6102848582860161024d565b92505060206102958582860161024d565b9150509250929050565b6102a881610226565b82525050565b5f6020820190506102c15f83018461029f565b92915050565b6128bb806102d45f395ff3fe608060405234801561000f575f5ffd5b5060043610610135575f3560e01c806397c4d284116100b6578063b8eeaa781161007a578063b8eeaa7814610340578063cdd78cfc1461035c578063e869a0601461037a578063f0f44260146103aa578063f2fde38b146103c6578063f648da80146103e257610135565b806397c4d28414610288578063a06d083c146102b8578063a641992a146102d6578063b4c0498b14610306578063b6b55f251461032457610135565b806361d027b3116100fd57806361d027b3146101ed578063715018a61461020b5780638927a106146102155780638da5cb5b1461024e57806395e6e2421461026c57610135565b80630103c92b1461013957806312e8e2c31461016957806318ba11c91461018557806327e235e3146101a15780632e1a7d4d146101d1575b5f5ffd5b610153600480360381019061014e9190611d23565b610412565b6040516101609190611d66565b60405180910390f35b610183600480360381019061017e9190611da9565b610458565b005b61019f600480360381019061019a9190611da9565b6104ae565b005b6101bb60048036038101906101b69190611d23565b61064b565b6040516101c89190611d66565b60405180910390f35b6101eb60048036038101906101e69190611da9565b610660565b005b6101f56107d0565b6040516102029190611de3565b60405180910390f35b6102136107f5565b005b61022f600480360381019061022a9190611da9565b610808565b6040516102459a99989796959493929190611e16565b60405180910390f35b6102566108bc565b6040516102639190611de3565b60405180910390f35b61028660048036038101906102819190611da9565b6108e3565b005b6102a2600480360381019061029d9190611d23565b610d66565b6040516102af9190611f94565b60405180910390f35b6102c0610e8b565b6040516102cd919061200f565b60405180910390f35b6102f060048036038101906102eb9190611da9565b610eb0565b6040516102fd9190611d66565b60405180910390f35b61030e610ec5565b60405161031b9190611d66565b60405180910390f35b61033e60048036038101906103399190611da9565b610ecb565b005b61035a60048036038101906103559190611da9565b610fbd565b005b61036461112e565b6040516103719190611d66565b60405180910390f35b610394600480360381019061038f9190612028565b611134565b6040516103a19190611d66565b60405180910390f35b6103c460048036038101906103bf9190611d23565b61115f565b005b6103e060048036038101906103db9190611d23565b6112fc565b005b6103fc60048036038101906103f79190612066565b611380565b6040516104099190611d66565b60405180910390f35b5f60045f8373ffffffffffffffffffffffffffffffffffffffff1673ffffffffffffffffffffffffffffffffffffffff1681526020019081526020015f20549050919050565b6104606118ed565b60648111156104a4576040517f08c379a000000000000000000000000000000000000000000000000000000000815260040161049b90612137565b60405180910390fd5b8060088190555050565b6104b66118ed565b5f60065f8381526020019081526020015f209050806005015f9054906101000a900460ff1661051a576040517f08c379a00000000000000000000000000000000000000000000000000000000081526004016105119061219f565b60405180910390fd5b8060050160019054906101000a900460ff161561056c576040517f08c379a000000000000000000000000000000000000000000000000000000000815260040161056390612207565b60405180910390fd5b8060050160029054906101000a900460ff166105bd576040517f08c379a00000000000000000000000000000000000000000000000000000000081526004016105b49061226f565b60405180910390fd5b5f8160060154426105ce91906122ba565b905080826007015f8282546105e391906122ed565b925050819055505f82600601819055505f8260050160026101000a81548160ff0219169083151502179055507f0ec1e889672cca90b2287dde9161b83295c31ef8ed2a8bd943a7f04b183f91678360405161063e9190611d66565b60405180910390a1505050565b6004602052805f5260405f205f915090505481565b8060045f3373ffffffffffffffffffffffffffffffffffffffff1673ffffffffffffffffffffffffffffffffffffffff1681526020019081526020015f205410156106e0576040517f08c379a00000000000000000000000000000000000000000000000000000000081526004016106d79061236a565b60405180910390fd5b61072c338260015f9054906101000a900473ffffffffffffffffffffffffffffffffffffffff1673ffffffffffffffffffffffffffffffffffffffff166119749092919063ffffffff16565b8060045f3373ffffffffffffffffffffffffffffffffffffffff1673ffffffffffffffffffffffffffffffffffffffff1681526020019081526020015f205f82825461077891906122ba565b925050819055503373ffffffffffffffffffffffffffffffffffffffff167f884edad9ce6fa2440d8a54cc123490eb96d2768479d49ff9c7366125a9424364826040516107c59190611d66565b60405180910390a250565b60025f9054906101000a900473ffffffffffffffffffffffffffffffffffffffff1681565b6107fd6118ed565b6108065f6119c7565b565b6006602052805f5260405f205f91509050805f015f9054906101000a900473ffffffffffffffffffffffffffffffffffffffff1690806001015f9054906101000a900473ffffffffffffffffffffffffffffffffffffffff1690806002015490806003015490806004015490806005015f9054906101000a900460ff16908060050160019054906101000a900460ff16908060050160029054906101000a900460ff1690806006015490806007015490508a565b5f5f5f9054906101000a900473ffffffffffffffffffffffffffffffffffffffff16905090565b6108eb6118ed565b5f60065f8381526020019081526020015f209050806005015f9054906101000a900460ff1661094f576040517f08c379a00000000000000000000000000000000000000000000000000000000081526004016109469061219f565b60405180910390fd5b8060050160019054906101000a900460ff16156109a1576040517f08c379a000000000000000000000000000000000000000000000000000000000815260040161099890612207565b60405180910390fd5b5f5f6109ac84611a88565b80925081935050505f81836109c191906122ed565b90505f6064600854836109d49190612388565b6109de91906123f6565b90508060045f60025f9054906101000a900473ffffffffffffffffffffffffffffffffffffffff1673ffffffffffffffffffffffffffffffffffffffff1673ffffffffffffffffffffffffffffffffffffffff1681526020019081526020015f205f828254610a4d91906122ed565b925050819055508060055f8881526020019081526020015f205f828254610a7491906122ba565b925050819055505f8183610a8891906122ba565b90508060045f886001015f9054906101000a900473ffffffffffffffffffffffffffffffffffffffff1673ffffffffffffffffffffffffffffffffffffffff1673ffffffffffffffffffffffffffffffffffffffff1681526020019081526020015f205f828254610af991906122ed565b925050819055508060055f8981526020019081526020015f205f828254610b2091906122ba565b9250508190555060055f8881526020019081526020015f205460045f885f015f9054906101000a900473ffffffffffffffffffffffffffffffffffffffff1673ffffffffffffffffffffffffffffffffffffffff1673ffffffffffffffffffffffffffffffffffffffff1681526020019081526020015f205f828254610ba691906122ed565b9250508190555060055f8881526020019081526020015f205f905560018660050160016101000a81548160ff0219169083151502179055505f866005015f6101000a81548160ff0219169083151502179055505f60065f8981526020019081526020015f205f015f9054906101000a900473ffffffffffffffffffffffffffffffffffffffff1690505f60035f8373ffffffffffffffffffffffffffffffffffffffff1673ffffffffffffffffffffffffffffffffffffffff1681526020019081526020015f2090505f5f90505b8180549050811015610d235789828281548110610c9457610c93612426565b5b905f5260205f20015403610d16578160018380549050610cb491906122ba565b81548110610cc557610cc4612426565b5b905f5260205f200154828281548110610ce157610ce0612426565b5b905f5260205f20018190555081805480610cfe57610cfd612453565b5b600190038181905f5260205f20015f90559055610d23565b8080600101915050610c74565b507f5a1241b1f059ce7cc7acee21bf522f44360638a58f17c58bd390a0f0af7e193789604051610d539190611d66565b60405180910390a1505050505050505050565b60605f60035f8473ffffffffffffffffffffffffffffffffffffffff1673ffffffffffffffffffffffffffffffffffffffff1681526020019081526020015f209050808054905067ffffffffffffffff811115610dc657610dc5612480565b5b604051908082528060200260200182016040528015610dff57816020015b610dec611cad565b815260200190600190039081610de45790505b5091505f5f90505b8180549050811015610e84575f828281548110610e2757610e26612426565b5b905f5260205f2001549050604051806040016040528082815260200160055f8481526020019081526020015f2054815250848381518110610e6b57610e6a612426565b5b6020026020010181905250508080600101915050610e07565b5050919050565b60015f9054906101000a900473ffffffffffffffffffffffffffffffffffffffff1681565b6005602052805f5260405f205f915090505481565b60075481565b610f1933308360015f9054906101000a900473ffffffffffffffffffffffffffffffffffffffff1673ffffffffffffffffffffffffffffffffffffffff16611b7e909392919063ffffffff16565b8060045f3373ffffffffffffffffffffffffffffffffffffffff1673ffffffffffffffffffffffffffffffffffffffff1681526020019081526020015f205f828254610f6591906122ed565b925050819055503373ffffffffffffffffffffffffffffffffffffffff167fe1fffcc4923d04b559f4d29a8bfc6cda04eb5b0d3c460751c2402c5c5cc9109c82604051610fb29190611d66565b60405180910390a250565b610fc56118ed565b5f60065f8381526020019081526020015f209050806005015f9054906101000a900460ff16611029576040517f08c379a00000000000000000000000000000000000000000000000000000000081526004016110209061219f565b60405180910390fd5b8060050160019054906101000a900460ff161561107b576040517f08c379a000000000000000000000000000000000000000000000000000000000815260040161107290612207565b60405180910390fd5b8060050160029054906101000a900460ff16156110cd576040517f08c379a00000000000000000000000000000000000000000000000000000000081526004016110c4906124f7565b60405180910390fd5b42816006018190555060018160050160026101000a81548160ff0219169083151502179055507fb04140f2785e8aa46842b88fdbee148f5bcd51a8e9c4b367b7f431e80a6ed5a1826040516111229190611d66565b60405180910390a15050565b60085481565b6003602052815f5260405f20818154811061114d575f80fd5b905f5260205f20015f91509150505481565b6111676118ed565b5f73ffffffffffffffffffffffffffffffffffffffff168173ffffffffffffffffffffffffffffffffffffffff16036111d5576040517f08c379a00000000000000000000000000000000000000000000000000000000081526004016111cc9061255f565b60405180910390fd5b5f61120060025f9054906101000a900473ffffffffffffffffffffffffffffffffffffffff16610412565b90508060045f8473ffffffffffffffffffffffffffffffffffffffff1673ffffffffffffffffffffffffffffffffffffffff1681526020019081526020015f205f82825461124e91906122ed565b925050819055505f60045f60025f9054906101000a900473ffffffffffffffffffffffffffffffffffffffff1673ffffffffffffffffffffffffffffffffffffffff1673ffffffffffffffffffffffffffffffffffffffff1681526020019081526020015f20819055508160025f6101000a81548173ffffffffffffffffffffffffffffffffffffffff021916908373ffffffffffffffffffffffffffffffffffffffff1602179055505050565b6113046118ed565b5f73ffffffffffffffffffffffffffffffffffffffff168173ffffffffffffffffffffffffffffffffffffffff1603611374575f6040517f1e4fbdf700000000000000000000000000000000000000000000000000000000815260040161136b9190611de3565b60405180910390fd5b61137d816119c7565b50565b5f6113896118ed565b5f86116113cb576040517f08c379a00000000000000000000000000000000000000000000000000000000081526004016113c2906125c7565b60405180910390fd5b5f8511806113d857505f84115b611417576040517f08c379a000000000000000000000000000000000000000000000000000000000815260040161140e9061262f565b60405180910390fd5b5f73ffffffffffffffffffffffffffffffffffffffff168273ffffffffffffffffffffffffffffffffffffffff1603611485576040517f08c379a000000000000000000000000000000000000000000000000000000000815260040161147c90612697565b60405180910390fd5b5f73ffffffffffffffffffffffffffffffffffffffff168373ffffffffffffffffffffffffffffffffffffffff16036114f3576040517f08c379a00000000000000000000000000000000000000000000000000000000081526004016114ea906126ff565b60405180910390fd5b5f85876115009190612388565b90505f858861150f9190612388565b90505f818361151e91906122ed565b90505f6064600854836115319190612388565b61153b91906123f6565b9050808261154991906122ed565b91508160045f8873ffffffffffffffffffffffffffffffffffffffff1673ffffffffffffffffffffffffffffffffffffffff1681526020019081526020015f205410156115cb576040517f08c379a00000000000000000000000000000000000000000000000000000000081526004016115c290612767565b60405180910390fd5b8160045f8873ffffffffffffffffffffffffffffffffffffffff1673ffffffffffffffffffffffffffffffffffffffff1681526020019081526020015f205461161491906122ba565b60045f8873ffffffffffffffffffffffffffffffffffffffff1673ffffffffffffffffffffffffffffffffffffffff1681526020019081526020015f20819055508160055f60075481526020019081526020015f2081905550600754945060075f81548092919061168490612785565b91905055506040518061014001604052808773ffffffffffffffffffffffffffffffffffffffff1681526020018873ffffffffffffffffffffffffffffffffffffffff16815260200161012c426116db91906122ba565b81526020018a81526020018981526020016001151581526020015f151581526020015f151581526020015f81526020015f81525060065f8781526020019081526020015f205f820151815f015f6101000a81548173ffffffffffffffffffffffffffffffffffffffff021916908373ffffffffffffffffffffffffffffffffffffffff1602179055506020820151816001015f6101000a81548173ffffffffffffffffffffffffffffffffffffffff021916908373ffffffffffffffffffffffffffffffffffffffff16021790555060408201518160020155606082015181600301556080820151816004015560a0820151816005015f6101000a81548160ff02191690831515021790555060c08201518160050160016101000a81548160ff02191690831515021790555060e08201518160050160026101000a81548160ff0219169083151502179055506101008201518160060155610120820151816007015590505060035f8773ffffffffffffffffffffffffffffffffffffffff1673ffffffffffffffffffffffffffffffffffffffff1681526020019081526020015f2085908060018154018082558091505060019003905f5260205f20015f90919091909150557f4501059f1dbad8e151132c2515ee7ea78d4b2540b9e56e941a03fdb9888efe288587898d866040516118d89594939291906127cc565b60405180910390a15050505095945050505050565b6118f5611bd3565b73ffffffffffffffffffffffffffffffffffffffff166119136108bc565b73ffffffffffffffffffffffffffffffffffffffff161461197257611936611bd3565b6040517f118cdaa70000000000000000000000000000000000000000000000000000000081526004016119699190611de3565b60405180910390fd5b565b6119818383836001611bda565b6119c257826040517f5274afe70000000000000000000000000000000000000000000000000000000081526004016119b99190611de3565b60405180910390fd5b505050565b5f5f5f9054906101000a900473ffffffffffffffffffffffffffffffffffffffff169050815f5f6101000a81548173ffffffffffffffffffffffffffffffffffffffff021916908373ffffffffffffffffffffffffffffffffffffffff1602179055508173ffffffffffffffffffffffffffffffffffffffff168173ffffffffffffffffffffffffffffffffffffffff167f8be0079c531659141344cd1fd0a4f28419497f9722a3daafe3b4186f6b6457e060405160405180910390a35050565b5f5f5f60065f8581526020019081526020015f2090505f816002015411611ae4576040517f08c379a0000000000000000000000000000000000000000000000000000000008152600401611adb90612867565b60405180910390fd5b5f816002015442611af591906122ba565b90505f826007015490508260050160029054906101000a900460ff1615611b3457826006015442611b2691906122ba565b81611b3191906122ed565b90505b826003015482611b449190612388565b94505f818311611b54575f611b61565b8183611b6091906122ba565b5b9050836004015481611b739190612388565b945050505050915091565b611b8c848484846001611c3c565b611bcd57836040517f5274afe7000000000000000000000000000000000000000000000000000000008152600401611bc49190611de3565b60405180910390fd5b50505050565b5f33905090565b5f5f63a9059cbb60e01b9050604051815f525f1960601c86166004528460245260205f60445f5f8b5af1925060015f51148316611c2e578383151615611c22573d5f823e3d81fd5b5f873b113d1516831692505b806040525050949350505050565b5f5f6323b872dd60e01b9050604051815f525f1960601c87166004525f1960601c86166024528460445260205f60645f5f8c5af1925060015f51148316611c9a578383151615611c8e573d5f823e3d81fd5b5f883b113d1516831692505b806040525f606052505095945050505050565b60405180604001604052805f81526020015f81525090565b5f5ffd5b5f73ffffffffffffffffffffffffffffffffffffffff82169050919050565b5f611cf282611cc9565b9050919050565b611d0281611ce8565b8114611d0c575f5ffd5b50565b5f81359050611d1d81611cf9565b92915050565b5f60208284031215611d3857611d37611cc5565b5b5f611d4584828501611d0f565b91505092915050565b5f819050919050565b611d6081611d4e565b82525050565b5f602082019050611d795f830184611d57565b92915050565b611d8881611d4e565b8114611d92575f5ffd5b50565b5f81359050611da381611d7f565b92915050565b5f60208284031215611dbe57611dbd611cc5565b5b5f611dcb84828501611d95565b91505092915050565b611ddd81611ce8565b82525050565b5f602082019050611df65f830184611dd4565b92915050565b5f8115159050919050565b611e1081611dfc565b82525050565b5f61014082019050611e2a5f83018d611dd4565b611e37602083018c611dd4565b611e44604083018b611d57565b611e51606083018a611d57565b611e5e6080830189611d57565b611e6b60a0830188611e07565b611e7860c0830187611e07565b611e8560e0830186611e07565b611e93610100830185611d57565b611ea1610120830184611d57565b9b9a5050505050505050505050565b5f81519050919050565b5f82825260208201905092915050565b5f819050602082019050919050565b611ee281611d4e565b82525050565b604082015f820151611efc5f850182611ed9565b506020820151611f0f6020850182611ed9565b50505050565b5f611f208383611ee8565b60408301905092915050565b5f602082019050919050565b5f611f4282611eb0565b611f4c8185611eba565b9350611f5783611eca565b805f5b83811015611f87578151611f6e8882611f15565b9750611f7983611f2c565b925050600181019050611f5a565b5085935050505092915050565b5f6020820190508181035f830152611fac8184611f38565b905092915050565b5f819050919050565b5f611fd7611fd2611fcd84611cc9565b611fb4565b611cc9565b9050919050565b5f611fe882611fbd565b9050919050565b5f611ff982611fde565b9050919050565b61200981611fef565b82525050565b5f6020820190506120225f830184612000565b92915050565b5f5f6040838503121561203e5761203d611cc5565b5b5f61204b85828601611d0f565b925050602061205c85828601611d95565b9150509250929050565b5f5f5f5f5f60a0868803121561207f5761207e611cc5565b5b5f61208c88828901611d95565b955050602061209d88828901611d95565b94505060406120ae88828901611d95565b93505060606120bf88828901611d0f565b92505060806120d088828901611d0f565b9150509295509295909350565b5f82825260208201905092915050565b7f46656520746f6f206869676800000000000000000000000000000000000000005f82015250565b5f612121600c836120dd565b915061212c826120ed565b602082019050919050565b5f6020820190508181035f83015261214e81612115565b9050919050565b7f4c65617365206973206e6f7420616374697665000000000000000000000000005f82015250565b5f6121896013836120dd565b915061219482612155565b602082019050919050565b5f6020820190508181035f8301526121b68161217d565b9050919050565b7f4c6561736520616c726561647920636f6d706c657465640000000000000000005f82015250565b5f6121f16017836120dd565b91506121fc826121bd565b602082019050919050565b5f6020820190508181035f83015261221e816121e5565b9050919050565b7f4c65617365206973206e6f7420706175736564000000000000000000000000005f82015250565b5f6122596013836120dd565b915061226482612225565b602082019050919050565b5f6020820190508181035f8301526122868161224d565b9050919050565b7f4e487b71000000000000000000000000000000000000000000000000000000005f52601160045260245ffd5b5f6122c482611d4e565b91506122cf83611d4e565b92508282039050818111156122e7576122e661228d565b5b92915050565b5f6122f782611d4e565b915061230283611d4e565b925082820190508082111561231a5761231961228d565b5b92915050565b7f696e73756666696369656e742062616c616e63650000000000000000000000005f82015250565b5f6123546014836120dd565b915061235f82612320565b602082019050919050565b5f6020820190508181035f83015261238181612348565b9050919050565b5f61239282611d4e565b915061239d83611d4e565b92508282026123ab81611d4e565b915082820484148315176123c2576123c161228d565b5b5092915050565b7f4e487b71000000000000000000000000000000000000000000000000000000005f52601260045260245ffd5b5f61240082611d4e565b915061240b83611d4e565b92508261241b5761241a6123c9565b5b828204905092915050565b7f4e487b71000000000000000000000000000000000000000000000000000000005f52603260045260245ffd5b7f4e487b71000000000000000000000000000000000000000000000000000000005f52603160045260245ffd5b7f4e487b71000000000000000000000000000000000000000000000000000000005f52604160045260245ffd5b7f4c6561736520697320616c7265616479207061757365640000000000000000005f82015250565b5f6124e16017836120dd565b91506124ec826124ad565b602082019050919050565b5f6020820190508181035f83015261250e816124d5565b9050919050565b7f7a65726f207472656173757279000000000000000000000000000000000000005f82015250565b5f612549600d836120dd565b915061255482612515565b602082019050919050565b5f6020820190508181035f8301526125768161253d565b9050919050565b7f4475726174696f6e206d757374206265203e20300000000000000000000000005f82015250565b5f6125b16014836120dd565b91506125bc8261257d565b602082019050919050565b5f6020820190508181035f8301526125de816125a5565b9050919050565b7f4174206c65617374206f6e65207072696365206d757374206265203e203000005f82015250565b5f612619601e836120dd565b9150612624826125e5565b602082019050919050565b5f6020820190508181035f8301526126468161260d565b9050919050565b7f696e76616c6964207573657200000000000000000000000000000000000000005f82015250565b5f612681600c836120dd565b915061268c8261264d565b602082019050919050565b5f6020820190508181035f8301526126ae81612675565b9050919050565b7f696e76616c69642070726f7669646572000000000000000000000000000000005f82015250565b5f6126e96010836120dd565b91506126f4826126b5565b602082019050919050565b5f6020820190508181035f830152612716816126dd565b9050919050565b7f496e73756666696369656e7420746f6b656e2062616c616e63650000000000005f82015250565b5f612751601a836120dd565b915061275c8261271d565b602082019050919050565b5f6020820190508181035f83015261277e81612745565b9050919050565b5f61278f82611d4e565b91507fffffffffffffffffffffffffffffffffffffffffffffffffffffffffffffffff82036127c1576127c061228d565b5b600182019050919050565b5f60a0820190506127df5f830188611d57565b6127ec6020830187611dd4565b6127f96040830186611dd4565b6128066060830185611d57565b6128136080830184611d57565b9695505050505050565b7f4c65617365206e6f7420737461727465640000000000000000000000000000005f82015250565b5f6128516011836120dd565b915061285c8261281d565b602082019050919050565b5f6020820190508181035f83015261287e81612845565b905091905056fea2646970667358221220356900ae2bb483a5ec04e27cfa0c8e29757eb8c358f3ab1237600ba58f06710064736f6c634300081c0033","opcodes":"PUSH1 0x80 PUSH1 0x40 MSTORE PUSH0 PUSH1 0x7 SSTORE PUSH1 0x5 PUSH1 0x8 SSTORE CALLVALUE DUP1 ISZERO PUSH2 0x18 JUMPI PUSH0 PUSH0 REVERT JUMPDEST POP PUSH1 0x40 MLOAD PUSH2 0x2B8F CODESIZE SUB DUP1 PUSH2 0x2B8F DUP4 CODECOPY DUP2 DUP2 ADD PUSH1 0x40 MSTORE DUP2 ADD SWAP1 PUSH2 0x3A SWAP2 SWAP1 PUSH2 0x261 JUMP JUMPDEST CALLER PUSH0 PUSH20 0xFFFFFFFFFFFFFFFFFFFFFFFFFFFFFFFFFFFFFFFF AND DUP2 PUSH20 0xFFFFFFFFFFFFFFFFFFFFFFFFFFFFFFFFFFFFFFFF AND SUB PUSH2 0xAB JUMPI PUSH0 PUSH1 0x40 MLOAD PUSH32 0x1E4FBDF700000000000000000000000000000000000000000000000000000000 DUP2 MSTORE PUSH1 0x4 ADD PUSH2 0xA2 SWAP2 SWAP1 PUSH2 0x2AE JUMP JUMPDEST PUSH1 0x40 MLOAD DUP1 SWAP2 SUB SWAP1 REVERT JUMPDEST PUSH2 0xBA DUP2 PUSH2 0x142 PUSH1 0x20 SHL PUSH1 0x20 SHR JUMP JUMPDEST POP DUP2 PUSH1 0x1 PUSH0 PUSH2 0x100 EXP DUP2 SLOAD DUP2 PUSH20 0xFFFFFFFFFFFFFFFFFFFFFFFFFFFFFFFFFFFFFFFF MUL NOT AND SWAP1 DUP4 PUSH20 0xFFFFFFFFFFFFFFFFFFFFFFFFFFFFFFFFFFFFFFFF AND MUL OR SWAP1 SSTORE POP DUP1 PUSH1 0x2 PUSH0 PUSH2 0x100 EXP DUP2 SLOAD DUP2 PUSH20 0xFFFFFFFFFFFFFFFFFFFFFFFFFFFFFFFFFFFFFFFF MUL NOT AND SWAP1 DUP4 PUSH20 0xFFFFFFFFFFFFFFFFFFFFFFFFFFFFFFFFFFFFFFFF AND MUL OR SWAP1 SSTORE POP POP POP PUSH2 0x2C7 JUMP JUMPDEST PUSH0 PUSH0 PUSH0 SWAP1 SLOAD SWAP1 PUSH2 0x100 EXP SWAP1 DIV PUSH20 0xFFFFFFFFFFFFFFFFFFFFFFFFFFFFFFFFFFFFFFFF AND SWAP1 POP DUP2 PUSH0 PUSH0 PUSH2 0x100 EXP DUP2 SLOAD DUP2 PUSH20 0xFFFFFFFFFFFFFFFFFFFFFFFFFFFFFFFFFFFFFFFF MUL NOT AND SWAP1 DUP4 PUSH20 0xFFFFFFFFFFFFFFFFFFFFFFFFFFFFFFFFFFFFFFFF AND MUL OR SWAP1 SSTORE POP DUP2 PUSH20 0xFFFFFFFFFFFFFFFFFFFFFFFFFFFFFFFFFFFFFFFF AND DUP2 PUSH20 0xFFFFFFFFFFFFFFFFFFFFFFFFFFFFFFFFFFFFFFFF AND PUSH32 0x8BE0079C531659141344CD1FD0A4F28419497F9722A3DAAFE3B4186F6B6457E0 PUSH1 0x40 MLOAD PUSH1 0x40 MLOAD DUP1 SWAP2 SUB SWAP1 LOG3 POP POP JUMP JUMPDEST PUSH0 PUSH0 REVERT JUMPDEST PUSH0 PUSH20 0xFFFFFFFFFFFFFFFFFFFFFFFFFFFFFFFFFFFFFFFF DUP3 AND SWAP1 POP SWAP2 SWAP1 POP JUMP JUMPDEST PUSH0 PUSH2 0x230 DUP3 PUSH2 0x207 JUMP JUMPDEST SWAP1 POP SWAP2 SWAP1 POP JUMP JUMPDEST PUSH2 0x240 DUP2 PUSH2 0x226 JUMP JUMPDEST DUP2 EQ PUSH2 0x24A JUMPI PUSH0 PUSH0 REVERT JUMPDEST POP JUMP JUMPDEST PUSH0 DUP2 MLOAD SWAP1 POP PUSH2 0x25B DUP2 PUSH2 0x237 JUMP JUMPDEST SWAP3 SWAP2 POP POP JUMP JUMPDEST PUSH0 PUSH0 PUSH1 0x40 DUP4 DUP6 SUB SLT ISZERO PUSH2 0x277 JUMPI PUSH2 0x276 PUSH2 0x203 JUMP JUMPDEST JUMPDEST PUSH0 PUSH2 0x284 DUP6 DUP3 DUP7 ADD PUSH2 0x24D JUMP JUMPDEST SWAP3 POP POP PUSH1 0x20 PUSH2 0x295 DUP6 DUP3 DUP7 ADD PUSH2 0x24D JUMP JUMPDEST SWAP2 POP POP SWAP3 POP SWAP3 SWAP1 POP JUMP JUMPDEST PUSH2 0x2A8 DUP2 PUSH2 0x226 JUMP JUMPDEST DUP3 MSTORE POP POP JUMP JUMPDEST PUSH0 PUSH1 0x20 DUP3 ADD SWAP1 POP PUSH2 0x2C1 PUSH0 DUP4 ADD DUP5 PUSH2 0x29F JUMP JUMPDEST SWAP3 SWAP2 POP POP JUMP JUMPDEST PUSH2 0x28BB DUP1 PUSH2 0x2D4 PUSH0 CODECOPY PUSH0 RETURN INVALID PUSH1 0x80 PUSH1 0x40 MSTORE CALLVALUE DUP1 ISZERO PUSH2 0xF JUMPI PUSH0 PUSH0 REVERT JUMPDEST POP PUSH1 0x4 CALLDATASIZE LT PUSH2 0x135 JUMPI PUSH0 CALLDATALOAD PUSH1 0xE0 SHR DUP1 PUSH4 0x97C4D284 GT PUSH2 0xB6 JUMPI DUP1 PUSH4 0xB8EEAA78 GT PUSH2 0x7A JUMPI DUP1 PUSH4 0xB8EEAA78 EQ PUSH2 0x340 JUMPI DUP1 PUSH4 0xCDD78CFC EQ PUSH2 0x35C JUMPI DUP1 PUSH4 0xE869A060 EQ PUSH2 0x37A JUMPI DUP1 PUSH4 0xF0F44260 EQ PUSH2 0x3AA JUMPI DUP1 PUSH4 0xF2FDE38B EQ PUSH2 0x3C6 JUMPI DUP1 PUSH4 0xF648DA80 EQ PUSH2 0x3E2 JUMPI PUSH2 0x135 JUMP JUMPDEST DUP1 PUSH4 0x97C4D284 EQ PUSH2 0x288 JUMPI DUP1 PUSH4 0xA06D083C EQ PUSH2 0x2B8 JUMPI DUP1 PUSH4 0xA641992A EQ PUSH2 0x2D6 JUMPI DUP1 PUSH4 0xB4C0498B EQ PUSH2 0x306 JUMPI DUP1 PUSH4 0xB6B55F25 EQ PUSH2 0x324 JUMPI PUSH2 0x135 JUMP JUMPDEST DUP1 PUSH4 0x61D027B3 GT PUSH2 0xFD JUMPI DUP1 PUSH4 0x61D027B3 EQ PUSH2 0x1ED JUMPI DUP1 PUSH4 0x715018A6 EQ PUSH2 0x20B JUMPI DUP1 PUSH4 0x8927A106 EQ PUSH2 0x215 JUMPI DUP1 PUSH4 0x8DA5CB5B EQ PUSH2 0x24E JUMPI DUP1 PUSH4 0x95E6E242 EQ PUSH2 0x26C JUMPI PUSH2 0x135 JUMP JUMPDEST DUP1 PUSH4 0x103C92B EQ PUSH2 0x139 JUMPI DUP1 PUSH4 0x12E8E2C3 EQ PUSH2 0x169 JUMPI DUP1 PUSH4 0x18BA11C9 EQ PUSH2 0x185 JUMPI DUP1 PUSH4 0x27E235E3 EQ PUSH2 0x1A1 JUMPI DUP1 PUSH4 0x2E1A7D4D EQ PUSH2 0x1D1 JUMPI JUMPDEST PUSH0 PUSH0 REVERT JUMPDEST PUSH2 0x153 PUSH1 0x4 DUP1 CALLDATASIZE SUB DUP2 ADD SWAP1 PUSH2 0x14E SWAP2 SWAP1 PUSH2 0x1D23 JUMP JUMPDEST PUSH2 0x412 JUMP JUMPDEST PUSH1 0x40 MLOAD PUSH2 0x160 SWAP2 SWAP1 PUSH2 0x1D66 JUMP JUMPDEST PUSH1 0x40 MLOAD DUP1 SWAP2 SUB SWAP1 RETURN JUMPDEST PUSH2 0x183 PUSH1 0x4 DUP1 CALLDATASIZE SUB DUP2 ADD SWAP1 PUSH2 0x17E SWAP2 SWAP1 PUSH2 0x1DA9 JUMP JUMPDEST PUSH2 0x458 JUMP JUMPDEST STOP JUMPDEST PUSH2 0x19F PUSH1 0x4 DUP1 CALLDATASIZE SUB DUP2 ADD SWAP1 PUSH2 0x19A SWAP2 SWAP1 PUSH2 0x1DA9 JUMP JUMPDEST PUSH2 0x4AE JUMP JUMPDEST STOP JUMPDEST PUSH2 0x1BB PUSH1 0x4 DUP1 CALLDATASIZE SUB DUP2 ADD SWAP1 PUSH2 0x1B6 SWAP2 SWAP1 PUSH2 0x1D23 JUMP JUMPDEST PUSH2 0x64B JUMP JUMPDEST PUSH1 0x40 MLOAD PUSH2 0x1C8 SWAP2 SWAP1 PUSH2 0x1D66 JUMP JUMPDEST PUSH1 0x40 MLOAD DUP1 SWAP2 SUB SWAP1 RETURN JUMPDEST PUSH2 0x1EB PUSH1 0x4 DUP1 CALLDATASIZE SUB DUP2 ADD SWAP1 PUSH2 0x1E6 SWAP2 SWAP1 PUSH2 0x1DA9 JUMP JUMPDEST PUSH2 0x660 JUMP JUMPDEST STOP JUMPDEST PUSH2 0x1F5 PUSH2 0x7D0 JUMP JUMPDEST PUSH1 0x40 MLOAD PUSH2 0x202 SWAP2 SWAP1 PUSH2 0x1DE3 JUMP JUMPDEST PUSH1 0x40 MLOAD DUP1 SWAP2 SUB SWAP1 RETURN JUMPDEST PUSH2 0x213 PUSH2 0x7F5 JUMP JUMPDEST STOP JUMPDEST PUSH2 0x22F PUSH1 0x4 DUP1 CALLDATASIZE SUB DUP2 ADD SWAP1 PUSH2 0x22A SWAP2 SWAP1 PUSH2 0x1DA9 JUMP JUMPDEST PUSH2 0x808 JUMP JUMPDEST PUSH1 0x40 MLOAD PUSH2 0x245 SWAP11 SWAP10 SWAP9 SWAP8 SWAP7 SWAP6 SWAP5 SWAP4 SWAP3 SWAP2 SWAP1 PUSH2 0x1E16 JUMP JUMPDEST PUSH1 0x40 MLOAD DUP1 SWAP2 SUB SWAP1 RETURN JUMPDEST PUSH2 0x256 PUSH2 0x8BC JUMP JUMPDEST PUSH1 0x40 MLOAD PUSH2 0x263 SWAP2 SWAP1 PUSH2 0x1DE3 JUMP JUMPDEST PUSH1 0x40 MLOAD DUP1 SWAP2 SUB SWAP1 RETURN JUMPDEST PUSH2 0x286 PUSH1 0x4 DUP1 CALLDATASIZE SUB DUP2 ADD SWAP1 PUSH2 0x281 SWAP2 SWAP1 PUSH2 0x1DA9 JUMP JUMPDEST PUSH2 0x8E3 JUMP JUMPDEST STOP JUMPDEST PUSH2 0x2A2 PUSH1 0x4 DUP1 CALLDATASIZE SUB DUP2 ADD SWAP1 PUSH2 0x29D SWAP2 SWAP1 PUSH2 0x1D23 JUMP JUMPDEST PUSH2 0xD66 JUMP JUMPDEST PUSH1 0x40 MLOAD PUSH2 0x2AF SWAP2 SWAP1 PUSH2 0x1F94 JUMP JUMPDEST PUSH1 0x40 MLOAD DUP1 SWAP2 SUB SWAP1 RETURN JUMPDEST PUSH2 0x2C0 PUSH2 0xE8B JUMP JUMPDEST PUSH1 0x40 MLOAD PUSH2 0x2CD SWAP2 SWAP1 PUSH2 0x200F JUMP JUMPDEST PUSH1 0x40 MLOAD DUP1 SWAP2 SUB SWAP1 RETURN JUMPDEST PUSH2 0x2F0 PUSH1 0x4 DUP1 CALLDATASIZE SUB DUP2 ADD SWAP1 PUSH2 0x2EB SWAP2 SWAP1 PUSH2 0x1DA9 JUMP JUMPDEST PUSH2 0xEB0 JUMP JUMPDEST PUSH1 0x40 MLOAD PUSH2 0x2FD SWAP2 SWAP1 PUSH2 0x1D66 JUMP JUMPDEST PUSH1 0x40 MLOAD DUP1 SWAP2 SUB SWAP1 RETURN JUMPDEST PUSH2 0x30E PUSH2 0xEC5 JUMP JUMPDEST PUSH1 0x40 MLOAD PUSH2 0x31B SWAP2 SWAP1 PUSH2 0x1D66 JUMP JUMPDEST PUSH1 0x40 MLOAD DUP1 SWAP2 SUB SWAP1 RETURN JUMPDEST PUSH2 0x33E PUSH1 0x4 DUP1 CALLDATASIZE SUB DUP2 ADD SWAP1 PUSH2 0x339 SWAP2 SWAP1 PUSH2 0x1DA9 JUMP JUMPDEST PUSH2 0xECB JUMP JUMPDEST STOP JUMPDEST PUSH2 0x35A PUSH1 0x4 DUP1 CALLDATASIZE SUB DUP2 ADD SWAP1 PUSH2 0x355 SWAP2 SWAP1 PUSH2 0x1DA9 JUMP JUMPDEST PUSH2 0xFBD JUMP JUMPDEST STOP JUMPDEST PUSH2 0x364 PUSH2 0x112E JUMP JUMPDEST PUSH1 0x40 MLOAD PUSH2 0x371 SWAP2 SWAP1 PUSH2 0x1D66 JUMP JUMPDEST PUSH1 0x40 MLOAD DUP1 SWAP2 SUB SWAP1 RETURN JUMPDEST PUSH2 0x394 PUSH1 0x4 DUP1 CALLDATASIZE SUB DUP2 ADD SWAP1 PUSH2 0x38F SWAP2 SWAP1 PUSH2 0x2028 JUMP JUMPDEST PUSH2 0x1134 JUMP JUMPDEST PUSH1 0x40 MLOAD PUSH2 0x3A1 SWAP2 SWAP1 PUSH2 0x1D66 JUMP JUMPDEST PUSH1 0x40 MLOAD DUP1 SWAP2 SUB SWAP1 RETURN JUMPDEST PUSH2 0x3C4 PUSH1 0x4 DUP1 CALLDATASIZE SUB DUP2 ADD SWAP1 PUSH2 0x3BF SWAP2 SWAP1 PUSH2 0x1D23 JUMP JUMPDEST PUSH2 0x115F JUMP JUMPDEST STOP JUMPDEST PUSH2 0x3E0 PUSH1 0x4 DUP1 CALLDATASIZE SUB DUP2 ADD SWAP1 PUSH2 0x3DB SWAP2 SWAP1 PUSH2 0x1D23 JUMP JUMPDEST PUSH2 0x12FC JUMP JUMPDEST STOP JUMPDEST PUSH2 0x3FC PUSH1 0x4 DUP1 CALLDATASIZE SUB DUP2 ADD SWAP1 PUSH2 0x3F7 SWAP2 SWAP1 PUSH2 0x2066 JUMP JUMPDEST PUSH2 0x1380 JUMP JUMPDEST PUSH1 0x40 MLOAD PUSH2 0x409 SWAP2 SWAP1 PUSH2 0x1D66 JUMP JUMPDEST PUSH1 0x40 MLOAD DUP1 SWAP2 SUB SWAP1 RETURN JUMPDEST PUSH0 PUSH1 0x4 PUSH0 DUP4 PUSH20 0xFFFFFFFFFFFFFFFFFFFFFFFFFFFFFFFFFFFFFFFF AND PUSH20 0xFFFFFFFFFFFFFFFFFFFFFFFFFFFFFFFFFFFFFFFF AND DUP2 MSTORE PUSH1 0x20 ADD SWAP1 DUP2 MSTORE PUSH1 0x20 ADD PUSH0 KECCAK256 SLOAD SWAP1 POP SWAP2 SWAP1 POP JUMP JUMPDEST PUSH2 0x460 PUSH2 0x18ED JUMP JUMPDEST PUSH1 0x64 DUP2 GT ISZERO PUSH2 0x4A4 JUMPI PUSH1 0x40 MLOAD PUSH32 0x8C379A000000000000000000000000000000000000000000000000000000000 DUP2 MSTORE PUSH1 0x4 ADD PUSH2 0x49B SWAP1 PUSH2 0x2137 JUMP JUMPDEST PUSH1 0x40 MLOAD DUP1 SWAP2 SUB SWAP1 REVERT JUMPDEST DUP1 PUSH1 0x8 DUP2 SWAP1 SSTORE POP POP JUMP JUMPDEST PUSH2 0x4B6 PUSH2 0x18ED JUMP JUMPDEST PUSH0 PUSH1 0x6 PUSH0 DUP4 DUP2 MSTORE PUSH1 0x20 ADD SWAP1 DUP2 MSTORE PUSH1 0x20 ADD PUSH0 KECCAK256 SWAP1 POP DUP1 PUSH1 0x5 ADD PUSH0 SWAP1 SLOAD SWAP1 PUSH2 0x100 EXP SWAP1 DIV PUSH1 0xFF AND PUSH2 0x51A JUMPI PUSH1 0x40 MLOAD PUSH32 0x8C379A000000000000000000000000000000000000000000000000000000000 DUP2 MSTORE PUSH1 0x4 ADD PUSH2 0x511 SWAP1 PUSH2 0x219F JUMP JUMPDEST PUSH1 0x40 MLOAD DUP1 SWAP2 SUB SWAP1 REVERT JUMPDEST DUP1 PUSH1 0x5 ADD PUSH1 0x1 SWAP1 SLOAD SWAP1 PUSH2 0x100 EXP SWAP1 DIV PUSH1 0xFF AND ISZERO PUSH2 0x56C JUMPI PUSH1 0x40 MLOAD PUSH32 0x8C379A000000000000000000000000000000000000000000000000000000000 DUP2 MSTORE PUSH1 0x4 ADD PUSH2 0x563 SWAP1 PUSH2 0x2207 JUMP JUMPDEST PUSH1 0x40 MLOAD DUP1 SWAP2 SUB SWAP1 REVERT JUMPDEST DUP1 PUSH1 0x5 ADD PUSH1 0x2 SWAP1 SLOAD SWAP1 PUSH2 0x100 EXP SWAP1 DIV PUSH1 0xFF AND PUSH2 0x5BD JUMPI PUSH1 0x40 MLOAD PUSH32 0x8C379A000000000000000000000000000000000000000000000000000000000 DUP2 MSTORE PUSH1 0x4 ADD PUSH2 0x5B4 SWAP1 PUSH2 0x226F JUMP JUMPDEST PUSH1 0x40 MLOAD DUP1 SWAP2 SUB SWAP1 REVERT JUMPDEST PUSH0 DUP2 PUSH1 0x6 ADD SLOAD TIMESTAMP PUSH2 0x5CE SWAP2 SWAP1 PUSH2 0x22BA JUMP JUMPDEST SWAP1 POP DUP1 DUP3 PUSH1 0x7 ADD PUSH0 DUP3 DUP3 SLOAD PUSH2 0x5E3 SWAP2 SWAP1 PUSH2 0x22ED JUMP JUMPDEST SWAP3 POP POP DUP2 SWAP1 SSTORE POP PUSH0 DUP3 PUSH1 0x6 ADD DUP2 SWAP1 SSTORE POP PUSH0 DUP3 PUSH1 0x5 ADD PUSH1 0x2 PUSH2 0x100 EXP DUP2 SLOAD DUP2 PUSH1 0xFF MUL NOT AND SWAP1 DUP4 ISZERO ISZERO MUL OR SWAP1 SSTORE POP PUSH32 0xEC1E889672CCA90B2287DDE9161B83295C31EF8ED2A8BD943A7F04B183F9167 DUP4 PUSH1 0x40 MLOAD PUSH2 0x63E SWAP2 SWAP1 PUSH2 0x1D66 JUMP JUMPDEST PUSH1 0x40 MLOAD DUP1 SWAP2 SUB SWAP1 LOG1 POP POP POP JUMP JUMPDEST PUSH1 0x4 PUSH1 0x20 MSTORE DUP1 PUSH0 MSTORE PUSH1 0x40 PUSH0 KECCAK256 PUSH0 SWAP2 POP SWAP1 POP SLOAD DUP2 JUMP JUMPDEST DUP1 PUSH1 0x4 PUSH0 CALLER PUSH20 0xFFFFFFFFFFFFFFFFFFFFFFFFFFFFFFFFFFFFFFFF AND PUSH20 0xFFFFFFFFFFFFFFFFFFFFFFFFFFFFFFFFFFFFFFFF AND DUP2 MSTORE PUSH1 0x20 ADD SWAP1 DUP2 MSTORE PUSH1 0x20 ADD PUSH0 KECCAK256 SLOAD LT ISZERO PUSH2 0x6E0 JUMPI PUSH1 0x40 MLOAD PUSH32 0x8C379A000000000000000000000000000000000000000000000000000000000 DUP2 MSTORE PUSH1 0x4 ADD PUSH2 0x6D7 SWAP1 PUSH2 0x236A JUMP JUMPDEST PUSH1 0x40 MLOAD DUP1 SWAP2 SUB SWAP1 REVERT JUMPDEST PUSH2 0x72C CALLER DUP3 PUSH1 0x1 PUSH0 SWAP1 SLOAD SWAP1 PUSH2 0x100 EXP SWAP1 DIV PUSH20 0xFFFFFFFFFFFFFFFFFFFFFFFFFFFFFFFFFFFFFFFF AND PUSH20 0xFFFFFFFFFFFFFFFFFFFFFFFFFFFFFFFFFFFFFFFF AND PUSH2 0x1974 SWAP1 SWAP3 SWAP2 SWAP1 PUSH4 0xFFFFFFFF AND JUMP JUMPDEST DUP1 PUSH1 0x4 PUSH0 CALLER PUSH20 0xFFFFFFFFFFFFFFFFFFFFFFFFFFFFFFFFFFFFFFFF AND PUSH20 0xFFFFFFFFFFFFFFFFFFFFFFFFFFFFFFFFFFFFFFFF AND DUP2 MSTORE PUSH1 0x20 ADD SWAP1 DUP2 MSTORE PUSH1 0x20 ADD PUSH0 KECCAK256 PUSH0 DUP3 DUP3 SLOAD PUSH2 0x778 SWAP2 SWAP1 PUSH2 0x22BA JUMP JUMPDEST SWAP3 POP POP DUP2 SWAP1 SSTORE POP CALLER PUSH20 0xFFFFFFFFFFFFFFFFFFFFFFFFFFFFFFFFFFFFFFFF AND PUSH32 0x884EDAD9CE6FA2440D8A54CC123490EB96D2768479D49FF9C7366125A9424364 DUP3 PUSH1 0x40 MLOAD PUSH2 0x7C5 SWAP2 SWAP1 PUSH2 0x1D66 JUMP JUMPDEST PUSH1 0x40 MLOAD DUP1 SWAP2 SUB SWAP1 LOG2 POP JUMP JUMPDEST PUSH1 0x2 PUSH0 SWAP1 SLOAD SWAP1 PUSH2 0x100 EXP SWAP1 DIV PUSH20 0xFFFFFFFFFFFFFFFFFFFFFFFFFFFFFFFFFFFFFFFF AND DUP2 JUMP JUMPDEST PUSH2 0x7FD PUSH2 0x18ED JUMP JUMPDEST PUSH2 0x806 PUSH0 PUSH2 0x19C7 JUMP JUMPDEST JUMP JUMPDEST PUSH1 0x6 PUSH1 0x20 MSTORE DUP1 PUSH0 MSTORE PUSH1 0x40 PUSH0 KECCAK256 PUSH0 SWAP2 POP SWAP1 POP DUP1 PUSH0 ADD PUSH0 SWAP1 SLOAD SWAP1 PUSH2 0x100 EXP SWAP1 DIV PUSH20 0xFFFFFFFFFFFFFFFFFFFFFFFFFFFFFFFFFFFFFFFF AND SWAP1 DUP1 PUSH1 0x1 ADD PUSH0 SWAP1 SLOAD SWAP1 PUSH2 0x100 EXP SWAP1 DIV PUSH20 0xFFFFFFFFFFFFFFFFFFFFFFFFFFFFFFFFFFFFFFFF AND SWAP1 DUP1 PUSH1 0x2 ADD SLOAD SWAP1 DUP1 PUSH1 0x3 ADD SLOAD SWAP1 DUP1 PUSH1 0x4 ADD SLOAD SWAP1 DUP1 PUSH1 0x5 ADD PUSH0 SWAP1 SLOAD SWAP1 PUSH2 0x100 EXP SWAP1 DIV PUSH1 0xFF AND SWAP1 DUP1 PUSH1 0x5 ADD PUSH1 0x1 SWAP1 SLOAD SWAP1 PUSH2 0x100 EXP SWAP1 DIV PUSH1 0xFF AND SWAP1 DUP1 PUSH1 0x5 ADD PUSH1 0x2 SWAP1 SLOAD SWAP1 PUSH2 0x100 EXP SWAP1 DIV PUSH1 0xFF AND SWAP1 DUP1 PUSH1 0x6 ADD SLOAD SWAP1 DUP1 PUSH1 0x7 ADD SLOAD SWAP1 POP DUP11 JUMP JUMPDEST PUSH0 PUSH0 PUSH0 SWAP1 SLOAD SWAP1 PUSH2 0x100 EXP SWAP1 DIV PUSH20 0xFFFFFFFFFFFFFFFFFFFFFFFFFFFFFFFFFFFFFFFF AND SWAP1 POP SWAP1 JUMP JUMPDEST PUSH2 0x8EB PUSH2 0x18ED JUMP JUMPDEST PUSH0 PUSH1 0x6 PUSH0 DUP4 DUP2 MSTORE PUSH1 0x20 ADD SWAP1 DUP2 MSTORE PUSH1 0x20 ADD PUSH0 KECCAK256 SWAP1 POP DUP1 PUSH1 0x5 ADD PUSH0 SWAP1 SLOAD SWAP1 PUSH2 0x100 EXP SWAP1 DIV PUSH1 0xFF AND PUSH2 0x94F JUMPI PUSH1 0x40 MLOAD PUSH32 0x8C379A000000000000000000000000000000000000000000000000000000000 DUP2 MSTORE PUSH1 0x4 ADD PUSH2 0x946 SWAP1 PUSH2 0x219F JUMP JUMPDEST PUSH1 0x40 MLOAD DUP1 SWAP2 SUB SWAP1 REVERT JUMPDEST DUP1 PUSH1 0x5 ADD PUSH1 0x1 SWAP1 SLOAD SWAP1 PUSH2 0x100 EXP SWAP1 DIV PUSH1 0xFF AND ISZERO PUSH2 0x9A1 JUMPI PUSH1 0x40 MLOAD PUSH32 0x8C379A000000000000000000000000000000000000000000000000000000000 DUP2 MSTORE PUSH1 0x4 ADD PUSH2 0x998 SWAP1 PUSH2 0x2207 JUMP JUMPDEST PUSH1 0x40 MLOAD DUP1 SWAP2 SUB SWAP1 REVERT JUMPDEST PUSH0 PUSH0 PUSH2 0x9AC DUP5 PUSH2 0x1A88 JUMP JUMPDEST DUP1 SWAP3 POP DUP2 SWAP4 POP POP POP PUSH0 DUP2 DUP4 PUSH2 0x9C1 SWAP2 SWAP1 PUSH2 0x22ED JUMP JUMPDEST SWAP1 POP PUSH0 PUSH1 0x64 PUSH1 0x8 SLOAD DUP4 PUSH2 0x9D4 SWAP2 SWAP1 PUSH2 0x2388 JUMP JUMPDEST PUSH2 0x9DE SWAP2 SWAP1 PUSH2 0x23F6 JUMP JUMPDEST SWAP1 POP DUP1 PUSH1 0x4 PUSH0 PUSH1 0x2 PUSH0 SWAP1 SLOAD SWAP1 PUSH2 0x100 EXP SWAP1 DIV PUSH20 0xFFFFFFFFFFFFFFFFFFFFFFFFFFFFFFFFFFFFFFFF AND PUSH20 0xFFFFFFFFFFFFFFFFFFFFFFFFFFFFFFFFFFFFFFFF AND PUSH20 0xFFFFFFFFFFFFFFFFFFFFFFFFFFFFFFFFFFFFFFFF AND DUP2 MSTORE PUSH1 0x20 ADD SWAP1 DUP2 MSTORE PUSH1 0x20 ADD PUSH0 KECCAK256 PUSH0 DUP3 DUP3 SLOAD PUSH2 0xA4D SWAP2 SWAP1 PUSH2 0x22ED JUMP JUMPDEST SWAP3 POP POP DUP2 SWAP1 SSTORE POP DUP1 PUSH1 0x5 PUSH0 DUP9 DUP2 MSTORE PUSH1 0x20 ADD SWAP1 DUP2 MSTORE PUSH1 0x20 ADD PUSH0 KECCAK256 PUSH0 DUP3 DUP3 SLOAD PUSH2 0xA74 SWAP2 SWAP1 PUSH2 0x22BA JUMP JUMPDEST SWAP3 POP POP DUP2 SWAP1 SSTORE POP PUSH0 DUP2 DUP4 PUSH2 0xA88 SWAP2 SWAP1 PUSH2 0x22BA JUMP JUMPDEST SWAP1 POP DUP1 PUSH1 0x4 PUSH0 DUP9 PUSH1 0x1 ADD PUSH0 SWAP1 SLOAD SWAP1 PUSH2 0x100 EXP SWAP1 DIV PUSH20 0xFFFFFFFFFFFFFFFFFFFFFFFFFFFFFFFFFFFFFFFF AND PUSH20 0xFFFFFFFFFFFFFFFFFFFFFFFFFFFFFFFFFFFFFFFF AND PUSH20 0xFFFFFFFFFFFFFFFFFFFFFFFFFFFFFFFFFFFFFFFF AND DUP2 MSTORE PUSH1 0x20 ADD SWAP1 DUP2 MSTORE PUSH1 0x20 ADD PUSH0 KECCAK256 PUSH0 DUP3 DUP3 SLOAD PUSH2 0xAF9 SWAP2 SWAP1 PUSH2 0x22ED JUMP JUMPDEST SWAP3 POP POP DUP2 SWAP1 SSTORE POP DUP1 PUSH1 0x5 PUSH0 DUP10 DUP2 MSTORE PUSH1 0x20 ADD SWAP1 DUP2 MSTORE PUSH1 0x20 ADD PUSH0 KECCAK256 PUSH0 DUP3 DUP3 SLOAD PUSH2 0xB20 SWAP2 SWAP1 PUSH2 0x22BA JUMP JUMPDEST SWAP3 POP POP DUP2 SWAP1 SSTORE POP PUSH1 0x5 PUSH0 DUP9 DUP2 MSTORE PUSH1 0x20 ADD SWAP1 DUP2 MSTORE PUSH1 0x20 ADD PUSH0 KECCAK256 SLOAD PUSH1 0x4 PUSH0 DUP9 PUSH0 ADD PUSH0 SWAP1 SLOAD SWAP1 PUSH2 0x100 EXP SWAP1 DIV PUSH20 0xFFFFFFFFFFFFFFFFFFFFFFFFFFFFFFFFFFFFFFFF AND PUSH20 0xFFFFFFFFFFFFFFFFFFFFFFFFFFFFFFFFFFFFFFFF AND PUSH20 0xFFFFFFFFFFFFFFFFFFFFFFFFFFFFFFFFFFFFFFFF AND DUP2 MSTORE PUSH1 0x20 ADD SWAP1 DUP2 MSTORE PUSH1 0x20 ADD PUSH0 KECCAK256 PUSH0 DUP3 DUP3 SLOAD PUSH2 0xBA6 SWAP2 SWAP1 PUSH2 0x22ED JUMP JUMPDEST SWAP3 POP POP DUP2 SWAP1 SSTORE POP PUSH1 0x5 PUSH0 DUP9 DUP2 MSTORE PUSH1 0x20 ADD SWAP1 DUP2 MSTORE PUSH1 0x20 ADD PUSH0 KECCAK256 PUSH0 SWAP1 SSTORE PUSH1 0x1 DUP7 PUSH1 0x5 ADD PUSH1 0x1 PUSH2 0x100 EXP DUP2 SLOAD DUP2 PUSH1 0xFF MUL NOT AND SWAP1 DUP4 ISZERO ISZERO MUL OR SWAP1 SSTORE POP PUSH0 DUP7 PUSH1 0x5 ADD PUSH0 PUSH2 0x100 EXP DUP2 SLOAD DUP2 PUSH1 0xFF MUL NOT AND SWAP1 DUP4 ISZERO ISZERO MUL OR SWAP1 SSTORE POP PUSH0 PUSH1 0x6 PUSH0 DUP10 DUP2 MSTORE PUSH1 0x20 ADD SWAP1 DUP2 MSTORE PUSH1 0x20 ADD PUSH0 KECCAK256 PUSH0 ADD PUSH0 SWAP1 SLOAD SWAP1 PUSH2 0x100 EXP SWAP1 DIV PUSH20 0xFFFFFFFFFFFFFFFFFFFFFFFFFFFFFFFFFFFFFFFF AND SWAP1 POP PUSH0 PUSH1 0x3 PUSH0 DUP4 PUSH20 0xFFFFFFFFFFFFFFFFFFFFFFFFFFFFFFFFFFFFFFFF AND PUSH20 0xFFFFFFFFFFFFFFFFFFFFFFFFFFFFFFFFFFFFFFFF AND DUP2 MSTORE PUSH1 0x20 ADD SWAP1 DUP2 MSTORE PUSH1 0x20 ADD PUSH0 KECCAK256 SWAP1 POP PUSH0 PUSH0 SWAP1 POP JUMPDEST DUP2 DUP1 SLOAD SWAP1 POP DUP2 LT ISZERO PUSH2 0xD23 JUMPI DUP10 DUP3 DUP3 DUP2 SLOAD DUP2 LT PUSH2 0xC94 JUMPI PUSH2 0xC93 PUSH2 0x2426 JUMP JUMPDEST JUMPDEST SWAP1 PUSH0 MSTORE PUSH1 0x20 PUSH0 KECCAK256 ADD SLOAD SUB PUSH2 0xD16 JUMPI DUP2 PUSH1 0x1 DUP4 DUP1 SLOAD SWAP1 POP PUSH2 0xCB4 SWAP2 SWAP1 PUSH2 0x22BA JUMP JUMPDEST DUP2 SLOAD DUP2 LT PUSH2 0xCC5 JUMPI PUSH2 0xCC4 PUSH2 0x2426 JUMP JUMPDEST JUMPDEST SWAP1 PUSH0 MSTORE PUSH1 0x20 PUSH0 KECCAK256 ADD SLOAD DUP3 DUP3 DUP2 SLOAD DUP2 LT PUSH2 0xCE1 JUMPI PUSH2 0xCE0 PUSH2 0x2426 JUMP JUMPDEST JUMPDEST SWAP1 PUSH0 MSTORE PUSH1 0x20 PUSH0 KECCAK256 ADD DUP2 SWAP1 SSTORE POP DUP2 DUP1 SLOAD DUP1 PUSH2 0xCFE JUMPI PUSH2 0xCFD PUSH2 0x2453 JUMP JUMPDEST JUMPDEST PUSH1 0x1 SWAP1 SUB DUP2 DUP2 SWAP1 PUSH0 MSTORE PUSH1 0x20 PUSH0 KECCAK256 ADD PUSH0 SWAP1 SSTORE SWAP1 SSTORE PUSH2 0xD23 JUMP JUMPDEST DUP1 DUP1 PUSH1 0x1 ADD SWAP2 POP POP PUSH2 0xC74 JUMP JUMPDEST POP PUSH32 0x5A1241B1F059CE7CC7ACEE21BF522F44360638A58F17C58BD390A0F0AF7E1937 DUP10 PUSH1 0x40 MLOAD PUSH2 0xD53 SWAP2 SWAP1 PUSH2 0x1D66 JUMP JUMPDEST PUSH1 0x40 MLOAD DUP1 SWAP2 SUB SWAP1 LOG1 POP POP POP POP POP POP POP POP POP JUMP JUMPDEST PUSH1 0x60 PUSH0 PUSH1 0x3 PUSH0 DUP5 PUSH20 0xFFFFFFFFFFFFFFFFFFFFFFFFFFFFFFFFFFFFFFFF AND PUSH20 0xFFFFFFFFFFFFFFFFFFFFFFFFFFFFFFFFFFFFFFFF AND DUP2 MSTORE PUSH1 0x20 ADD SWAP1 DUP2 MSTORE PUSH1 0x20 ADD PUSH0 KECCAK256 SWAP1 POP DUP1 DUP1 SLOAD SWAP1 POP PUSH8 0xFFFFFFFFFFFFFFFF DUP2 GT ISZERO PUSH2 0xDC6 JUMPI PUSH2 0xDC5 PUSH2 0x2480 JUMP JUMPDEST JUMPDEST PUSH1 0x40 MLOAD SWAP1 DUP1 DUP3 MSTORE DUP1 PUSH1 0x20 MUL PUSH1 0x20 ADD DUP3 ADD PUSH1 0x40 MSTORE DUP1 ISZERO PUSH2 0xDFF JUMPI DUP2 PUSH1 0x20 ADD JUMPDEST PUSH2 0xDEC PUSH2 0x1CAD JUMP JUMPDEST DUP2 MSTORE PUSH1 0x20 ADD SWAP1 PUSH1 0x1 SWAP1 SUB SWAP1 DUP2 PUSH2 0xDE4 JUMPI SWAP1 POP JUMPDEST POP SWAP2 POP PUSH0 PUSH0 SWAP1 POP JUMPDEST DUP2 DUP1 SLOAD SWAP1 POP DUP2 LT ISZERO PUSH2 0xE84 JUMPI PUSH0 DUP3 DUP3 DUP2 SLOAD DUP2 LT PUSH2 0xE27 JUMPI PUSH2 0xE26 PUSH2 0x2426 JUMP JUMPDEST JUMPDEST SWAP1 PUSH0 MSTORE PUSH1 0x20 PUSH0 KECCAK256 ADD SLOAD SWAP1 POP PUSH1 0x40 MLOAD DUP1 PUSH1 0x40 ADD PUSH1 0x40 MSTORE DUP1 DUP3 DUP2 MSTORE PUSH1 0x20 ADD PUSH1 0x5 PUSH0 DUP5 DUP2 MSTORE PUSH1 0x20 ADD SWAP1 DUP2 MSTORE PUSH1 0x20 ADD PUSH0 KECCAK256 SLOAD DUP2 MSTORE POP DUP5 DUP4 DUP2 MLOAD DUP2 LT PUSH2 0xE6B JUMPI PUSH2 0xE6A PUSH2 0x2426 JUMP JUMPDEST JUMPDEST PUSH1 0x20 MUL PUSH1 0x20 ADD ADD DUP2 SWAP1 MSTORE POP POP DUP1 DUP1 PUSH1 0x1 ADD SWAP2 POP POP PUSH2 0xE07 JUMP JUMPDEST POP POP SWAP2 SWAP1 POP JUMP JUMPDEST PUSH1 0x1 PUSH0 SWAP1 SLOAD SWAP1 PUSH2 0x100 EXP SWAP1 DIV PUSH20 0xFFFFFFFFFFFFFFFFFFFFFFFFFFFFFFFFFFFFFFFF AND DUP2 JUMP JUMPDEST PUSH1 0x5 PUSH1 0x20 MSTORE DUP1 PUSH0 MSTORE PUSH1 0x40 PUSH0 KECCAK256 PUSH0 SWAP2 POP SWAP1 POP SLOAD DUP2 JUMP JUMPDEST PUSH1 0x7 SLOAD DUP2 JUMP JUMPDEST PUSH2 0xF19 CALLER ADDRESS DUP4 PUSH1 0x1 PUSH0 SWAP1 SLOAD SWAP1 PUSH2 0x100 EXP SWAP1 DIV PUSH20 0xFFFFFFFFFFFFFFFFFFFFFFFFFFFFFFFFFFFFFFFF AND PUSH20 0xFFFFFFFFFFFFFFFFFFFFFFFFFFFFFFFFFFFFFFFF AND PUSH2 0x1B7E SWAP1 SWAP4 SWAP3 SWAP2 SWAP1 PUSH4 0xFFFFFFFF AND JUMP JUMPDEST DUP1 PUSH1 0x4 PUSH0 CALLER PUSH20 0xFFFFFFFFFFFFFFFFFFFFFFFFFFFFFFFFFFFFFFFF AND PUSH20 0xFFFFFFFFFFFFFFFFFFFFFFFFFFFFFFFFFFFFFFFF AND DUP2 MSTORE PUSH1 0x20 ADD SWAP1 DUP2 MSTORE PUSH1 0x20 ADD PUSH0 KECCAK256 PUSH0 DUP3 DUP3 SLOAD PUSH2 0xF65 SWAP2 SWAP1 PUSH2 0x22ED JUMP JUMPDEST SWAP3 POP POP DUP2 SWAP1 SSTORE POP CALLER PUSH20 0xFFFFFFFFFFFFFFFFFFFFFFFFFFFFFFFFFFFFFFFF AND PUSH32 0xE1FFFCC4923D04B559F4D29A8BFC6CDA04EB5B0D3C460751C2402C5C5CC9109C DUP3 PUSH1 0x40 MLOAD PUSH2 0xFB2 SWAP2 SWAP1 PUSH2 0x1D66 JUMP JUMPDEST PUSH1 0x40 MLOAD DUP1 SWAP2 SUB SWAP1 LOG2 POP JUMP JUMPDEST PUSH2 0xFC5 PUSH2 0x18ED JUMP JUMPDEST PUSH0 PUSH1 0x6 PUSH0 DUP4 DUP2 MSTORE PUSH1 0x20 ADD SWAP1 DUP2 MSTORE PUSH1 0x20 ADD PUSH0 KECCAK256 SWAP1 POP DUP1 PUSH1 0x5 ADD PUSH0 SWAP1 SLOAD SWAP1 PUSH2 0x100 EXP SWAP1 DIV PUSH1 0xFF AND PUSH2 0x1029 JUMPI PUSH1 0x40 MLOAD PUSH32 0x8C379A000000000000000000000000000000000000000000000000000000000 DUP2 MSTORE PUSH1 0x4 ADD PUSH2 0x1020 SWAP1 PUSH2 0x219F JUMP JUMPDEST PUSH1 0x40 MLOAD DUP1 SWAP2 SUB SWAP1 REVERT JUMPDEST DUP1 PUSH1 0x5 ADD PUSH1 0x1 SWAP1 SLOAD SWAP1 PUSH2 0x100 EXP SWAP1 DIV PUSH1 0xFF AND ISZERO PUSH2 0x107B JUMPI PUSH1 0x40 MLOAD PUSH32 0x8C379A000000000000000000000000000000000000000000000000000000000 DUP2 MSTORE PUSH1 0x4 ADD PUSH2 0x1072 SWAP1 PUSH2 0x2207 JUMP JUMPDEST PUSH1 0x40 MLOAD DUP1 SWAP2 SUB SWAP1 REVERT JUMPDEST DUP1 PUSH1 0x5 ADD PUSH1 0x2 SWAP1 SLOAD SWAP1 PUSH2 0x100 EXP SWAP1 DIV PUSH1 0xFF AND ISZERO PUSH2 0x10CD JUMPI PUSH1 0x40 MLOAD PUSH32 0x8C379A000000000000000000000000000000000000000000000000000000000 DUP2 MSTORE PUSH1 0x4 ADD PUSH2 0x10C4 SWAP1 PUSH2 0x24F7 JUMP JUMPDEST PUSH1 0x40 MLOAD DUP1 SWAP2 SUB SWAP1 REVERT JUMPDEST TIMESTAMP DUP2 PUSH1 0x6 ADD DUP2 SWAP1 SSTORE POP PUSH1 0x1 DUP2 PUSH1 0x5 ADD PUSH1 0x2 PUSH2 0x100 EXP DUP2 SLOAD DUP2 PUSH1 0xFF MUL NOT AND SWAP1 DUP4 ISZERO ISZERO MUL OR SWAP1 SSTORE POP PUSH32 0xB04140F2785E8AA46842B88FDBEE148F5BCD51A8E9C4B367B7F431E80A6ED5A1 DUP3 PUSH1 0x40 MLOAD PUSH2 0x1122 SWAP2 SWAP1 PUSH2 0x1D66 JUMP JUMPDEST PUSH1 0x40 MLOAD DUP1 SWAP2 SUB SWAP1 LOG1 POP POP JUMP JUMPDEST PUSH1 0x8 SLOAD DUP2 JUMP JUMPDEST PUSH1 0x3 PUSH1 0x20 MSTORE DUP2 PUSH0 MSTORE PUSH1 0x40 PUSH0 KECCAK256 DUP2 DUP2 SLOAD DUP2 LT PUSH2 0x114D JUMPI PUSH0 DUP1 REVERT JUMPDEST SWAP1 PUSH0 MSTORE PUSH1 0x20 PUSH0 KECCAK256 ADD PUSH0 SWAP2 POP SWAP2 POP POP SLOAD DUP2 JUMP JUMPDEST PUSH2 0x1167 PUSH2 0x18ED JUMP JUMPDEST PUSH0 PUSH20 0xFFFFFFFFFFFFFFFFFFFFFFFFFFFFFFFFFFFFFFFF AND DUP2 PUSH20 0xFFFFFFFFFFFFFFFFFFFFFFFFFFFFFFFFFFFFFFFF AND SUB PUSH2 0x11D5 JUMPI PUSH1 0x40 MLOAD PUSH32 0x8C379A000000000000000000000000000000000000000000000000000000000 DUP2 MSTORE PUSH1 0x4 ADD PUSH2 0x11CC SWAP1 PUSH2 0x255F JUMP JUMPDEST PUSH1 0x40 MLOAD DUP1 SWAP2 SUB SWAP1 REVERT JUMPDEST PUSH0 PUSH2 0x1200 PUSH1 0x2 PUSH0 SWAP1 SLOAD SWAP1 PUSH2 0x100 EXP SWAP1 DIV PUSH20 0xFFFFFFFFFFFFFFFFFFFFFFFFFFFFFFFFFFFFFFFF AND PUSH2 0x412 JUMP JUMPDEST SWAP1 POP DUP1 PUSH1 0x4 PUSH0 DUP5 PUSH20 0xFFFFFFFFFFFFFFFFFFFFFFFFFFFFFFFFFFFFFFFF AND PUSH20 0xFFFFFFFFFFFFFFFFFFFFFFFFFFFFFFFFFFFFFFFF AND DUP2 MSTORE PUSH1 0x20 ADD SWAP1 DUP2 MSTORE PUSH1 0x20 ADD PUSH0 KECCAK256 PUSH0 DUP3 DUP3 SLOAD PUSH2 0x124E SWAP2 SWAP1 PUSH2 0x22ED JUMP JUMPDEST SWAP3 POP POP DUP2 SWAP1 SSTORE POP PUSH0 PUSH1 0x4 PUSH0 PUSH1 0x2 PUSH0 SWAP1 SLOAD SWAP1 PUSH2 0x100 EXP SWAP1 DIV PUSH20 0xFFFFFFFFFFFFFFFFFFFFFFFFFFFFFFFFFFFFFFFF AND PUSH20 0xFFFFFFFFFFFFFFFFFFFFFFFFFFFFFFFFFFFFFFFF AND PUSH20 0xFFFFFFFFFFFFFFFFFFFFFFFFFFFFFFFFFFFFFFFF AND DUP2 MSTORE PUSH1 0x20 ADD SWAP1 DUP2 MSTORE PUSH1 0x20 ADD PUSH0 KECCAK256 DUP2 SWAP1 SSTORE POP DUP2 PUSH1 0x2 PUSH0 PUSH2 0x100 EXP DUP2 SLOAD DUP2 PUSH20 0xFFFFFFFFFFFFFFFFFFFFFFFFFFFFFFFFFFFFFFFF MUL NOT AND SWAP1 DUP4 PUSH20 0xFFFFFFFFFFFFFFFFFFFFFFFFFFFFFFFFFFFFFFFF AND MUL OR SWAP1 SSTORE POP POP POP JUMP JUMPDEST PUSH2 0x1304 PUSH2 0x18ED JUMP JUMPDEST PUSH0 PUSH20 0xFFFFFFFFFFFFFFFFFFFFFFFFFFFFFFFFFFFFFFFF AND DUP2 PUSH20 0xFFFFFFFFFFFFFFFFFFFFFFFFFFFFFFFFFFFFFFFF AND SUB PUSH2 0x1374 JUMPI PUSH0 PUSH1 0x40 MLOAD PUSH32 0x1E4FBDF700000000000000000000000000000000000000000000000000000000 DUP2 MSTORE PUSH1 0x4 ADD PUSH2 0x136B SWAP2 SWAP1 PUSH2 0x1DE3 JUMP JUMPDEST PUSH1 0x40 MLOAD DUP1 SWAP2 SUB SWAP1 REVERT JUMPDEST PUSH2 0x137D DUP2 PUSH2 0x19C7 JUMP JUMPDEST POP JUMP JUMPDEST PUSH0 PUSH2 0x1389 PUSH2 0x18ED JUMP JUMPDEST PUSH0 DUP7 GT PUSH2 0x13CB JUMPI PUSH1 0x40 MLOAD PUSH32 0x8C379A000000000000000000000000000000000000000000000000000000000 DUP2 MSTORE PUSH1 0x4 ADD PUSH2 0x13C2 SWAP1 PUSH2 0x25C7 JUMP JUMPDEST PUSH1 0x40 MLOAD DUP1 SWAP2 SUB SWAP1 REVERT JUMPDEST PUSH0 DUP6 GT DUP1 PUSH2 0x13D8 JUMPI POP PUSH0 DUP5 GT JUMPDEST PUSH2 0x1417 JUMPI PUSH1 0x40 MLOAD PUSH32 0x8C379A000000000000000000000000000000000000000000000000000000000 DUP2 MSTORE PUSH1 0x4 ADD PUSH2 0x140E SWAP1 PUSH2 0x262F JUMP JUMPDEST PUSH1 0x40 MLOAD DUP1 SWAP2 SUB SWAP1 REVERT JUMPDEST PUSH0 PUSH20 0xFFFFFFFFFFFFFFFFFFFFFFFFFFFFFFFFFFFFFFFF AND DUP3 PUSH20 0xFFFFFFFFFFFFFFFFFFFFFFFFFFFFFFFFFFFFFFFF AND SUB PUSH2 0x1485 JUMPI PUSH1 0x40 MLOAD PUSH32 0x8C379A000000000000000000000000000000000000000000000000000000000 DUP2 MSTORE PUSH1 0x4 ADD PUSH2 0x147C SWAP1 PUSH2 0x2697 JUMP JUMPDEST PUSH1 0x40 MLOAD DUP1 SWAP2 SUB SWAP1 REVERT JUMPDEST PUSH0 PUSH20 0xFFFFFFFFFFFFFFFFFFFFFFFFFFFFFFFFFFFFFFFF AND DUP4 PUSH20 0xFFFFFFFFFFFFFFFFFFFFFFFFFFFFFFFFFFFFFFFF AND SUB PUSH2 0x14F3 JUMPI PUSH1 0x40 MLOAD PUSH32 0x8C379A000000000000000000000000000000000000000000000000000000000 DUP2 MSTORE PUSH1 0x4 ADD PUSH2 0x14EA SWAP1 PUSH2 0x26FF JUMP JUMPDEST PUSH1 0x40 MLOAD DUP1 SWAP2 SUB SWAP1 REVERT JUMPDEST PUSH0 DUP6 DUP8 PUSH2 0x1500 SWAP2 SWAP1 PUSH2 0x2388 JUMP JUMPDEST SWAP1 POP PUSH0 DUP6 DUP9 PUSH2 0x150F SWAP2 SWAP1 PUSH2 0x2388 JUMP JUMPDEST SWAP1 POP PUSH0 DUP2 DUP4 PUSH2 0x151E SWAP2 SWAP1 PUSH2 0x22ED JUMP JUMPDEST SWAP1 POP PUSH0 PUSH1 0x64 PUSH1 0x8 SLOAD DUP4 PUSH2 0x1531 SWAP2 SWAP1 PUSH2 0x2388 JUMP JUMPDEST PUSH2 0x153B SWAP2 SWAP1 PUSH2 0x23F6 JUMP JUMPDEST SWAP1 POP DUP1 DUP3 PUSH2 0x1549 SWAP2 SWAP1 PUSH2 0x22ED JUMP JUMPDEST SWAP2 POP DUP2 PUSH1 0x4 PUSH0 DUP9 PUSH20 0xFFFFFFFFFFFFFFFFFFFFFFFFFFFFFFFFFFFFFFFF AND PUSH20 0xFFFFFFFFFFFFFFFFFFFFFFFFFFFFFFFFFFFFFFFF AND DUP2 MSTORE PUSH1 0x20 ADD SWAP1 DUP2 MSTORE PUSH1 0x20 ADD PUSH0 KECCAK256 SLOAD LT ISZERO PUSH2 0x15CB JUMPI PUSH1 0x40 MLOAD PUSH32 0x8C379A000000000000000000000000000000000000000000000000000000000 DUP2 MSTORE PUSH1 0x4 ADD PUSH2 0x15C2 SWAP1 PUSH2 0x2767 JUMP JUMPDEST PUSH1 0x40 MLOAD DUP1 SWAP2 SUB SWAP1 REVERT JUMPDEST DUP2 PUSH1 0x4 PUSH0 DUP9 PUSH20 0xFFFFFFFFFFFFFFFFFFFFFFFFFFFFFFFFFFFFFFFF AND PUSH20 0xFFFFFFFFFFFFFFFFFFFFFFFFFFFFFFFFFFFFFFFF AND DUP2 MSTORE PUSH1 0x20 ADD SWAP1 DUP2 MSTORE PUSH1 0x20 ADD PUSH0 KECCAK256 SLOAD PUSH2 0x1614 SWAP2 SWAP1 PUSH2 0x22BA JUMP JUMPDEST PUSH1 0x4 PUSH0 DUP9 PUSH20 0xFFFFFFFFFFFFFFFFFFFFFFFFFFFFFFFFFFFFFFFF AND PUSH20 0xFFFFFFFFFFFFFFFFFFFFFFFFFFFFFFFFFFFFFFFF AND DUP2 MSTORE PUSH1 0x20 ADD SWAP1 DUP2 MSTORE PUSH1 0x20 ADD PUSH0 KECCAK256 DUP2 SWAP1 SSTORE POP DUP2 PUSH1 0x5 PUSH0 PUSH1 0x7 SLOAD DUP2 MSTORE PUSH1 0x20 ADD SWAP1 DUP2 MSTORE PUSH1 0x20 ADD PUSH0 KECCAK256 DUP2 SWAP1 SSTORE POP PUSH1 0x7 SLOAD SWAP5 POP PUSH1 0x7 PUSH0 DUP2 SLOAD DUP1 SWAP3 SWAP2 SWAP1 PUSH2 0x1684 SWAP1 PUSH2 0x2785 JUMP JUMPDEST SWAP2 SWAP1 POP SSTORE POP PUSH1 0x40 MLOAD DUP1 PUSH2 0x140 ADD PUSH1 0x40 MSTORE DUP1 DUP8 PUSH20 0xFFFFFFFFFFFFFFFFFFFFFFFFFFFFFFFFFFFFFFFF AND DUP2 MSTORE PUSH1 0x20 ADD DUP9 PUSH20 0xFFFFFFFFFFFFFFFFFFFFFFFFFFFFFFFFFFFFFFFF AND DUP2 MSTORE PUSH1 0x20 ADD PUSH2 0x12C TIMESTAMP PUSH2 0x16DB SWAP2 SWAP1 PUSH2 0x22BA JUMP JUMPDEST DUP2 MSTORE PUSH1 0x20 ADD DUP11 DUP2 MSTORE PUSH1 0x20 ADD DUP10 DUP2 MSTORE PUSH1 0x20 ADD PUSH1 0x1 ISZERO ISZERO DUP2 MSTORE PUSH1 0x20 ADD PUSH0 ISZERO ISZERO DUP2 MSTORE PUSH1 0x20 ADD PUSH0 ISZERO ISZERO DUP2 MSTORE PUSH1 0x20 ADD PUSH0 DUP2 MSTORE PUSH1 0x20 ADD PUSH0 DUP2 MSTORE POP PUSH1 0x6 PUSH0 DUP8 DUP2 MSTORE PUSH1 0x20 ADD SWAP1 DUP2 MSTORE PUSH1 0x20 ADD PUSH0 KECCAK256 PUSH0 DUP3 ADD MLOAD DUP2 PUSH0 ADD PUSH0 PUSH2 0x100 EXP DUP2 SLOAD DUP2 PUSH20 0xFFFFFFFFFFFFFFFFFFFFFFFFFFFFFFFFFFFFFFFF MUL NOT AND SWAP1 DUP4 PUSH20 0xFFFFFFFFFFFFFFFFFFFFFFFFFFFFFFFFFFFFFFFF AND MUL OR SWAP1 SSTORE POP PUSH1 0x20 DUP3 ADD MLOAD DUP2 PUSH1 0x1 ADD PUSH0 PUSH2 0x100 EXP DUP2 SLOAD DUP2 PUSH20 0xFFFFFFFFFFFFFFFFFFFFFFFFFFFFFFFFFFFFFFFF MUL NOT AND SWAP1 DUP4 PUSH20 0xFFFFFFFFFFFFFFFFFFFFFFFFFFFFFFFFFFFFFFFF AND MUL OR SWAP1 SSTORE POP PUSH1 0x40 DUP3 ADD MLOAD DUP2 PUSH1 0x2 ADD SSTORE PUSH1 0x60 DUP3 ADD MLOAD DUP2 PUSH1 0x3 ADD SSTORE PUSH1 0x80 DUP3 ADD MLOAD DUP2 PUSH1 0x4 ADD SSTORE PUSH1 0xA0 DUP3 ADD MLOAD DUP2 PUSH1 0x5 ADD PUSH0 PUSH2 0x100 EXP DUP2 SLOAD DUP2 PUSH1 0xFF MUL NOT AND SWAP1 DUP4 ISZERO ISZERO MUL OR SWAP1 SSTORE POP PUSH1 0xC0 DUP3 ADD MLOAD DUP2 PUSH1 0x5 ADD PUSH1 0x1 PUSH2 0x100 EXP DUP2 SLOAD DUP2 PUSH1 0xFF MUL NOT AND SWAP1 DUP4 ISZERO ISZERO MUL OR SWAP1 SSTORE POP PUSH1 0xE0 DUP3 ADD MLOAD DUP2 PUSH1 0x5 ADD PUSH1 0x2 PUSH2 0x100 EXP DUP2 SLOAD DUP2 PUSH1 0xFF MUL NOT AND SWAP1 DUP4 ISZERO ISZERO MUL OR SWAP1 SSTORE POP PUSH2 0x100 DUP3 ADD MLOAD DUP2 PUSH1 0x6 ADD SSTORE PUSH2 0x120 DUP3 ADD MLOAD DUP2 PUSH1 0x7 ADD SSTORE SWAP1 POP POP PUSH1 0x3 PUSH0 DUP8 PUSH20 0xFFFFFFFFFFFFFFFFFFFFFFFFFFFFFFFFFFFFFFFF AND PUSH20 0xFFFFFFFFFFFFFFFFFFFFFFFFFFFFFFFFFFFFFFFF AND DUP2 MSTORE PUSH1 0x20 ADD SWAP1 DUP2 MSTORE PUSH1 0x20 ADD PUSH0 KECCAK256 DUP6 SWAP1 DUP1 PUSH1 0x1 DUP2 SLOAD ADD DUP1 DUP3 SSTORE DUP1 SWAP2 POP POP PUSH1 0x1 SWAP1 SUB SWAP1 PUSH0 MSTORE PUSH1 0x20 PUSH0 KECCAK256 ADD PUSH0 SWAP1 SWAP2 SWAP1 SWAP2 SWAP1 SWAP2 POP SSTORE PUSH32 0x4501059F1DBAD8E151132C2515EE7EA78D4B2540B9E56E941A03FDB9888EFE28 DUP6 DUP8 DUP10 DUP14 DUP7 PUSH1 0x40 MLOAD PUSH2 0x18D8 SWAP6 SWAP5 SWAP4 SWAP3 SWAP2 SWAP1 PUSH2 0x27CC JUMP JUMPDEST PUSH1 0x40 MLOAD DUP1 SWAP2 SUB SWAP1 LOG1 POP POP POP POP SWAP6 SWAP5 POP POP POP POP POP JUMP JUMPDEST PUSH2 0x18F5 PUSH2 0x1BD3 JUMP JUMPDEST PUSH20 0xFFFFFFFFFFFFFFFFFFFFFFFFFFFFFFFFFFFFFFFF AND PUSH2 0x1913 PUSH2 0x8BC JUMP JUMPDEST PUSH20 0xFFFFFFFFFFFFFFFFFFFFFFFFFFFFFFFFFFFFFFFF AND EQ PUSH2 0x1972 JUMPI PUSH2 0x1936 PUSH2 0x1BD3 JUMP JUMPDEST PUSH1 0x40 MLOAD PUSH32 0x118CDAA700000000000000000000000000000000000000000000000000000000 DUP2 MSTORE PUSH1 0x4 ADD PUSH2 0x1969 SWAP2 SWAP1 PUSH2 0x1DE3 JUMP JUMPDEST PUSH1 0x40 MLOAD DUP1 SWAP2 SUB SWAP1 REVERT JUMPDEST JUMP JUMPDEST PUSH2 0x1981 DUP4 DUP4 DUP4 PUSH1 0x1 PUSH2 0x1BDA JUMP JUMPDEST PUSH2 0x19C2 JUMPI DUP3 PUSH1 0x40 MLOAD PUSH32 0x5274AFE700000000000000000000000000000000000000000000000000000000 DUP2 MSTORE PUSH1 0x4 ADD PUSH2 0x19B9 SWAP2 SWAP1 PUSH2 0x1DE3 JUMP JUMPDEST PUSH1 0x40 MLOAD DUP1 SWAP2 SUB SWAP1 REVERT JUMPDEST POP POP POP JUMP JUMPDEST PUSH0 PUSH0 PUSH0 SWAP1 SLOAD SWAP1 PUSH2 0x100 EXP SWAP1 DIV PUSH20 0xFFFFFFFFFFFFFFFFFFFFFFFFFFFFFFFFFFFFFFFF AND SWAP1 POP DUP2 PUSH0 PUSH0 PUSH2 0x100 EXP DUP2 SLOAD DUP2 PUSH20 0xFFFFFFFFFFFFFFFFFFFFFFFFFFFFFFFFFFFFFFFF MUL NOT AND SWAP1 DUP4 PUSH20 0xFFFFFFFFFFFFFFFFFFFFFFFFFFFFFFFFFFFFFFFF AND MUL OR SWAP1 SSTORE POP DUP2 PUSH20 0xFFFFFFFFFFFFFFFFFFFFFFFFFFFFFFFFFFFFFFFF AND DUP2 PUSH20 0xFFFFFFFFFFFFFFFFFFFFFFFFFFFFFFFFFFFFFFFF AND PUSH32 0x8BE0079C531659141344CD1FD0A4F28419497F9722A3DAAFE3B4186F6B6457E0 PUSH1 0x40 MLOAD PUSH1 0x40 MLOAD DUP1 SWAP2 SUB SWAP1 LOG3 POP POP JUMP JUMPDEST PUSH0 PUSH0 PUSH0 PUSH1 0x6 PUSH0 DUP6 DUP2 MSTORE PUSH1 0x20 ADD SWAP1 DUP2 MSTORE PUSH1 0x20 ADD PUSH0 KECCAK256 SWAP1 POP PUSH0 DUP2 PUSH1 0x2 ADD SLOAD GT PUSH2 0x1AE4 JUMPI PUSH1 0x40 MLOAD PUSH32 0x8C379A000000000000000000000000000000000000000000000000000000000 DUP2 MSTORE PUSH1 0x4 ADD PUSH2 0x1ADB SWAP1 PUSH2 0x2867 JUMP JUMPDEST PUSH1 0x40 MLOAD DUP1 SWAP2 SUB SWAP1 REVERT JUMPDEST PUSH0 DUP2 PUSH1 0x2 ADD SLOAD TIMESTAMP PUSH2 0x1AF5 SWAP2 SWAP1 PUSH2 0x22BA JUMP JUMPDEST SWAP1 POP PUSH0 DUP3 PUSH1 0x7 ADD SLOAD SWAP1 POP DUP3 PUSH1 0x5 ADD PUSH1 0x2 SWAP1 SLOAD SWAP1 PUSH2 0x100 EXP SWAP1 DIV PUSH1 0xFF AND ISZERO PUSH2 0x1B34 JUMPI DUP3 PUSH1 0x6 ADD SLOAD TIMESTAMP PUSH2 0x1B26 SWAP2 SWAP1 PUSH2 0x22BA JUMP JUMPDEST DUP2 PUSH2 0x1B31 SWAP2 SWAP1 PUSH2 0x22ED JUMP JUMPDEST SWAP1 POP JUMPDEST DUP3 PUSH1 0x3 ADD SLOAD DUP3 PUSH2 0x1B44 SWAP2 SWAP1 PUSH2 0x2388 JUMP JUMPDEST SWAP5 POP PUSH0 DUP2 DUP4 GT PUSH2 0x1B54 JUMPI PUSH0 PUSH2 0x1B61 JUMP JUMPDEST DUP2 DUP4 PUSH2 0x1B60 SWAP2 SWAP1 PUSH2 0x22BA JUMP JUMPDEST JUMPDEST SWAP1 POP DUP4 PUSH1 0x4 ADD SLOAD DUP2 PUSH2 0x1B73 SWAP2 SWAP1 PUSH2 0x2388 JUMP JUMPDEST SWAP5 POP POP POP POP POP SWAP2 POP SWAP2 JUMP JUMPDEST PUSH2 0x1B8C DUP5 DUP5 DUP5 DUP5 PUSH1 0x1 PUSH2 0x1C3C JUMP JUMPDEST PUSH2 0x1BCD JUMPI DUP4 PUSH1 0x40 MLOAD PUSH32 0x5274AFE700000000000000000000000000000000000000000000000000000000 DUP2 MSTORE PUSH1 0x4 ADD PUSH2 0x1BC4 SWAP2 SWAP1 PUSH2 0x1DE3 JUMP JUMPDEST PUSH1 0x40 MLOAD DUP1 SWAP2 SUB SWAP1 REVERT JUMPDEST POP POP POP POP JUMP JUMPDEST PUSH0 CALLER SWAP1 POP SWAP1 JUMP JUMPDEST PUSH0 PUSH0 PUSH4 0xA9059CBB PUSH1 0xE0 SHL SWAP1 POP PUSH1 0x40 MLOAD DUP2 PUSH0 MSTORE PUSH0 NOT PUSH1 0x60 SHR DUP7 AND PUSH1 0x4 MSTORE DUP5 PUSH1 0x24 MSTORE PUSH1 0x20 PUSH0 PUSH1 0x44 PUSH0 PUSH0 DUP12 GAS CALL SWAP3 POP PUSH1 0x1 PUSH0 MLOAD EQ DUP4 AND PUSH2 0x1C2E JUMPI DUP4 DUP4 ISZERO AND ISZERO PUSH2 0x1C22 JUMPI RETURNDATASIZE PUSH0 DUP3 RETURNDATACOPY RETURNDATASIZE DUP2 REVERT JUMPDEST PUSH0 DUP8 EXTCODESIZE GT RETURNDATASIZE ISZERO AND DUP4 AND SWAP3 POP JUMPDEST DUP1 PUSH1 0x40 MSTORE POP POP SWAP5 SWAP4 POP POP POP POP JUMP JUMPDEST PUSH0 PUSH0 PUSH4 0x23B872DD PUSH1 0xE0 SHL SWAP1 POP PUSH1 0x40 MLOAD DUP2 PUSH0 MSTORE PUSH0 NOT PUSH1 0x60 SHR DUP8 AND PUSH1 0x4 MSTORE PUSH0 NOT PUSH1 0x60 SHR DUP7 AND PUSH1 0x24 MSTORE DUP5 PUSH1 0x44 MSTORE PUSH1 0x20 PUSH0 PUSH1 0x64 PUSH0 PUSH0 DUP13 GAS CALL SWAP3 POP PUSH1 0x1 PUSH0 MLOAD EQ DUP4 AND PUSH2 0x1C9A JUMPI DUP4 DUP4 ISZERO AND ISZERO PUSH2 0x1C8E JUMPI RETURNDATASIZE PUSH0 DUP3 RETURNDATACOPY RETURNDATASIZE DUP2 REVERT JUMPDEST PUSH0 DUP9 EXTCODESIZE GT RETURNDATASIZE ISZERO AND DUP4 AND SWAP3 POP JUMPDEST DUP1 PUSH1 0x40 MSTORE PUSH0 PUSH1 0x60 MSTORE POP POP SWAP6 SWAP5 POP POP POP POP POP JUMP JUMPDEST PUSH1 0x40 MLOAD DUP1 PUSH1 0x40 ADD PUSH1 0x40 MSTORE DUP1 PUSH0 DUP2 MSTORE PUSH1 0x20 ADD PUSH0 DUP2 MSTORE POP SWAP1 JUMP JUMPDEST PUSH0 PUSH0 REVERT JUMPDEST PUSH0 PUSH20 0xFFFFFFFFFFFFFFFFFFFFFFFFFFFFFFFFFFFFFFFF DUP3 AND SWAP1 POP SWAP2 SWAP1 POP JUMP JUMPDEST PUSH0 PUSH2 0x1CF2 DUP3 PUSH2 0x1CC9 JUMP JUMPDEST SWAP1 POP SWAP2 SWAP1 POP JUMP JUMPDEST PUSH2 0x1D02 DUP2 PUSH2 0x1CE8 JUMP JUMPDEST DUP2 EQ PUSH2 0x1D0C JUMPI PUSH0 PUSH0 REVERT JUMPDEST POP JUMP JUMPDEST PUSH0 DUP2 CALLDATALOAD SWAP1 POP PUSH2 0x1D1D DUP2 PUSH2 0x1CF9 JUMP JUMPDEST SWAP3 SWAP2 POP POP JUMP JUMPDEST PUSH0 PUSH1 0x20 DUP3 DUP5 SUB SLT ISZERO PUSH2 0x1D38 JUMPI PUSH2 0x1D37 PUSH2 0x1CC5 JUMP JUMPDEST JUMPDEST PUSH0 PUSH2 0x1D45 DUP5 DUP3 DUP6 ADD PUSH2 0x1D0F JUMP JUMPDEST SWAP2 POP POP SWAP3 SWAP2 POP POP JUMP JUMPDEST PUSH0 DUP2 SWAP1 POP SWAP2 SWAP1 POP JUMP JUMPDEST PUSH2 0x1D60 DUP2 PUSH2 0x1D4E JUMP JUMPDEST DUP3 MSTORE POP POP JUMP JUMPDEST PUSH0 PUSH1 0x20 DUP3 ADD SWAP1 POP PUSH2 0x1D79 PUSH0 DUP4 ADD DUP5 PUSH2 0x1D57 JUMP JUMPDEST SWAP3 SWAP2 POP POP JUMP JUMPDEST PUSH2 0x1D88 DUP2 PUSH2 0x1D4E JUMP JUMPDEST DUP2 EQ PUSH2 0x1D92 JUMPI PUSH0 PUSH0 REVERT JUMPDEST POP JUMP JUMPDEST PUSH0 DUP2 CALLDATALOAD SWAP1 POP PUSH2 0x1DA3 DUP2 PUSH2 0x1D7F JUMP JUMPDEST SWAP3 SWAP2 POP POP JUMP JUMPDEST PUSH0 PUSH1 0x20 DUP3 DUP5 SUB SLT ISZERO PUSH2 0x1DBE JUMPI PUSH2 0x1DBD PUSH2 0x1CC5 JUMP JUMPDEST JUMPDEST PUSH0 PUSH2 0x1DCB DUP5 DUP3 DUP6 ADD PUSH2 0x1D95 JUMP JUMPDEST SWAP2 POP POP SWAP3 SWAP2 POP POP JUMP JUMPDEST PUSH2 0x1DDD DUP2 PUSH2 0x1CE8 JUMP JUMPDEST DUP3 MSTORE POP POP JUMP JUMPDEST PUSH0 PUSH1 0x20 DUP3 ADD SWAP1 POP PUSH2 0x1DF6 PUSH0 DUP4 ADD DUP5 PUSH2 0x1DD4 JUMP JUMPDEST SWAP3 SWAP2 POP POP JUMP JUMPDEST PUSH0 DUP2 ISZERO ISZERO SWAP1 POP SWAP2 SWAP1 POP JUMP JUMPDEST PUSH2 0x1E10 DUP2 PUSH2 0x1DFC JUMP JUMPDEST DUP3 MSTORE POP POP JUMP JUMPDEST PUSH0 PUSH2 0x140 DUP3 ADD SWAP1 POP PUSH2 0x1E2A PUSH0 DUP4 ADD DUP14 PUSH2 0x1DD4 JUMP JUMPDEST PUSH2 0x1E37 PUSH1 0x20 DUP4 ADD DUP13 PUSH2 0x1DD4 JUMP JUMPDEST PUSH2 0x1E44 PUSH1 0x40 DUP4 ADD DUP12 PUSH2 0x1D57 JUMP JUMPDEST PUSH2 0x1E51 PUSH1 0x60 DUP4 ADD DUP11 PUSH2 0x1D57 JUMP JUMPDEST PUSH2 0x1E5E PUSH1 0x80 DUP4 ADD DUP10 PUSH2 0x1D57 JUMP JUMPDEST PUSH2 0x1E6B PUSH1 0xA0 DUP4 ADD DUP9 PUSH2 0x1E07 JUMP JUMPDEST PUSH2 0x1E78 PUSH1 0xC0 DUP4 ADD DUP8 PUSH2 0x1E07 JUMP JUMPDEST PUSH2 0x1E85 PUSH1 0xE0 DUP4 ADD DUP7 PUSH2 0x1E07 JUMP JUMPDEST PUSH2 0x1E93 PUSH2 0x100 DUP4 ADD DUP6 PUSH2 0x1D57 JUMP JUMPDEST PUSH2 0x1EA1 PUSH2 0x120 DUP4 ADD DUP5 PUSH2 0x1D57 JUMP JUMPDEST SWAP12 SWAP11 POP POP POP POP POP POP POP POP POP POP POP JUMP JUMPDEST PUSH0 DUP2 MLOAD SWAP1 POP SWAP2 SWAP1 POP JUMP JUMPDEST PUSH0 DUP3 DUP3 MSTORE PUSH1 0x20 DUP3 ADD SWAP1 POP SWAP3 SWAP2 POP POP JUMP JUMPDEST PUSH0 DUP2 SWAP1 POP PUSH1 0x20 DUP3 ADD SWAP1 POP SWAP2 SWAP1 POP JUMP JUMPDEST PUSH2 0x1EE2 DUP2 PUSH2 0x1D4E JUMP JUMPDEST DUP3 MSTORE POP POP JUMP JUMPDEST PUSH1 0x40 DUP3 ADD PUSH0 DUP3 ADD MLOAD PUSH2 0x1EFC PUSH0 DUP6 ADD DUP3 PUSH2 0x1ED9 JUMP JUMPDEST POP PUSH1 0x20 DUP3 ADD MLOAD PUSH2 0x1F0F PUSH1 0x20 DUP6 ADD DUP3 PUSH2 0x1ED9 JUMP JUMPDEST POP POP POP POP JUMP JUMPDEST PUSH0 PUSH2 0x1F20 DUP4 DUP4 PUSH2 0x1EE8 JUMP JUMPDEST PUSH1 0x40 DUP4 ADD SWAP1 POP SWAP3 SWAP2 POP POP JUMP JUMPDEST PUSH0 PUSH1 0x20 DUP3 ADD SWAP1 POP SWAP2 SWAP1 POP JUMP JUMPDEST PUSH0 PUSH2 0x1F42 DUP3 PUSH2 0x1EB0 JUMP JUMPDEST PUSH2 0x1F4C DUP2 DUP6 PUSH2 0x1EBA JUMP JUMPDEST SWAP4 POP PUSH2 0x1F57 DUP4 PUSH2 0x1ECA JUMP JUMPDEST DUP1 PUSH0 JUMPDEST DUP4 DUP2 LT ISZERO PUSH2 0x1F87 JUMPI DUP2 MLOAD PUSH2 0x1F6E DUP9 DUP3 PUSH2 0x1F15 JUMP JUMPDEST SWAP8 POP PUSH2 0x1F79 DUP4 PUSH2 0x1F2C JUMP JUMPDEST SWAP3 POP POP PUSH1 0x1 DUP2 ADD SWAP1 POP PUSH2 0x1F5A JUMP JUMPDEST POP DUP6 SWAP4 POP POP POP POP SWAP3 SWAP2 POP POP JUMP JUMPDEST PUSH0 PUSH1 0x20 DUP3 ADD SWAP1 POP DUP2 DUP2 SUB PUSH0 DUP4 ADD MSTORE PUSH2 0x1FAC DUP2 DUP5 PUSH2 0x1F38 JUMP JUMPDEST SWAP1 POP SWAP3 SWAP2 POP POP JUMP JUMPDEST PUSH0 DUP2 SWAP1 POP SWAP2 SWAP1 POP JUMP JUMPDEST PUSH0 PUSH2 0x1FD7 PUSH2 0x1FD2 PUSH2 0x1FCD DUP5 PUSH2 0x1CC9 JUMP JUMPDEST PUSH2 0x1FB4 JUMP JUMPDEST PUSH2 0x1CC9 JUMP JUMPDEST SWAP1 POP SWAP2 SWAP1 POP JUMP JUMPDEST PUSH0 PUSH2 0x1FE8 DUP3 PUSH2 0x1FBD JUMP JUMPDEST SWAP1 POP SWAP2 SWAP1 POP JUMP JUMPDEST PUSH0 PUSH2 0x1FF9 DUP3 PUSH2 0x1FDE JUMP JUMPDEST SWAP1 POP SWAP2 SWAP1 POP JUMP JUMPDEST PUSH2 0x2009 DUP2 PUSH2 0x1FEF JUMP JUMPDEST DUP3 MSTORE POP POP JUMP JUMPDEST PUSH0 PUSH1 0x20 DUP3 ADD SWAP1 POP PUSH2 0x2022 PUSH0 DUP4 ADD DUP5 PUSH2 0x2000 JUMP JUMPDEST SWAP3 SWAP2 POP POP JUMP JUMPDEST PUSH0 PUSH0 PUSH1 0x40 DUP4 DUP6 SUB SLT ISZERO PUSH2 0x203E JUMPI PUSH2 0x203D PUSH2 0x1CC5 JUMP JUMPDEST JUMPDEST PUSH0 PUSH2 0x204B DUP6 DUP3 DUP7 ADD PUSH2 0x1D0F JUMP JUMPDEST SWAP3 POP POP PUSH1 0x20 PUSH2 0x205C DUP6 DUP3 DUP7 ADD PUSH2 0x1D95 JUMP JUMPDEST SWAP2 POP POP SWAP3 POP SWAP3 SWAP1 POP JUMP JUMPDEST PUSH0 PUSH0 PUSH0 PUSH0 PUSH0 PUSH1 0xA0 DUP7 DUP9 SUB SLT ISZERO PUSH2 0x207F JUMPI PUSH2 0x207E PUSH2 0x1CC5 JUMP JUMPDEST JUMPDEST PUSH0 PUSH2 0x208C DUP9 DUP3 DUP10 ADD PUSH2 0x1D95 JUMP JUMPDEST SWAP6 POP POP PUSH1 0x20 PUSH2 0x209D DUP9 DUP3 DUP10 ADD PUSH2 0x1D95 JUMP JUMPDEST SWAP5 POP POP PUSH1 0x40 PUSH2 0x20AE DUP9 DUP3 DUP10 ADD PUSH2 0x1D95 JUMP JUMPDEST SWAP4 POP POP PUSH1 0x60 PUSH2 0x20BF DUP9 DUP3 DUP10 ADD PUSH2 0x1D0F JUMP JUMPDEST SWAP3 POP POP PUSH1 0x80 PUSH2 0x20D0 DUP9 DUP3 DUP10 ADD PUSH2 0x1D0F JUMP JUMPDEST SWAP2 POP POP SWAP3 SWAP6 POP SWAP3 SWAP6 SWAP1 SWAP4 POP JUMP JUMPDEST PUSH0 DUP3 DUP3 MSTORE PUSH1 0x20 DUP3 ADD SWAP1 POP SWAP3 SWAP2 POP POP JUMP JUMPDEST PUSH32 0x46656520746F6F20686967680000000000000000000000000000000000000000 PUSH0 DUP3 ADD MSTORE POP JUMP JUMPDEST PUSH0 PUSH2 0x2121 PUSH1 0xC DUP4 PUSH2 0x20DD JUMP JUMPDEST SWAP2 POP PUSH2 0x212C DUP3 PUSH2 0x20ED JUMP JUMPDEST PUSH1 0x20 DUP3 ADD SWAP1 POP SWAP2 SWAP1 POP JUMP JUMPDEST PUSH0 PUSH1 0x20 DUP3 ADD SWAP1 POP DUP2 DUP2 SUB PUSH0 DUP4 ADD MSTORE PUSH2 0x214E DUP2 PUSH2 0x2115 JUMP JUMPDEST SWAP1 POP SWAP2 SWAP1 POP JUMP JUMPDEST PUSH32 0x4C65617365206973206E6F742061637469766500000000000000000000000000 PUSH0 DUP3 ADD MSTORE POP JUMP JUMPDEST PUSH0 PUSH2 0x2189 PUSH1 0x13 DUP4 PUSH2 0x20DD JUMP JUMPDEST SWAP2 POP PUSH2 0x2194 DUP3 PUSH2 0x2155 JUMP JUMPDEST PUSH1 0x20 DUP3 ADD SWAP1 POP SWAP2 SWAP1 POP JUMP JUMPDEST PUSH0 PUSH1 0x20 DUP3 ADD SWAP1 POP DUP2 DUP2 SUB PUSH0 DUP4 ADD MSTORE PUSH2 0x21B6 DUP2 PUSH2 0x217D JUMP JUMPDEST SWAP1 POP SWAP2 SWAP1 POP JUMP JUMPDEST PUSH32 0x4C6561736520616C726561647920636F6D706C65746564000000000000000000 PUSH0 DUP3 ADD MSTORE POP JUMP JUMPDEST PUSH0 PUSH2 0x21F1 PUSH1 0x17 DUP4 PUSH2 0x20DD JUMP JUMPDEST SWAP2 POP PUSH2 0x21FC DUP3 PUSH2 0x21BD JUMP JUMPDEST PUSH1 0x20 DUP3 ADD SWAP1 POP SWAP2 SWAP1 POP JUMP JUMPDEST PUSH0 PUSH1 0x20 DUP3 ADD SWAP1 POP DUP2 DUP2 SUB PUSH0 DUP4 ADD MSTORE PUSH2 0x221E DUP2 PUSH2 0x21E5 JUMP JUMPDEST SWAP1 POP SWAP2 SWAP1 POP JUMP JUMPDEST PUSH32 0x4C65617365206973206E6F742070617573656400000000000000000000000000 PUSH0 DUP3 ADD MSTORE POP JUMP JUMPDEST PUSH0 PUSH2 0x2259 PUSH1 0x13 DUP4 PUSH2 0x20DD JUMP JUMPDEST SWAP2 POP PUSH2 0x2264 DUP3 PUSH2 0x2225 JUMP JUMPDEST PUSH1 0x20 DUP3 ADD SWAP1 POP SWAP2 SWAP1 POP JUMP JUMPDEST PUSH0 PUSH1 0x20 DUP3 ADD SWAP1 POP DUP2 DUP2 SUB PUSH0 DUP4 ADD MSTORE PUSH2 0x2286 DUP2 PUSH2 0x224D JUMP JUMPDEST SWAP1 POP SWAP2 SWAP1 POP JUMP JUMPDEST PUSH32 0x4E487B7100000000000000000000000000000000000000000000000000000000 PUSH0 MSTORE PUSH1 0x11 PUSH1 0x4 MSTORE PUSH1 0x24 PUSH0 REVERT JUMPDEST PUSH0 PUSH2 0x22C4 DUP3 PUSH2 0x1D4E JUMP JUMPDEST SWAP2 POP PUSH2 0x22CF DUP4 PUSH2 0x1D4E JUMP JUMPDEST SWAP3 POP DUP3 DUP3 SUB SWAP1 POP DUP2 DUP2 GT ISZERO PUSH2 0x22E7 JUMPI PUSH2 0x22E6 PUSH2 0x228D JUMP JUMPDEST JUMPDEST SWAP3 SWAP2 POP POP JUMP JUMPDEST PUSH0 PUSH2 0x22F7 DUP3 PUSH2 0x1D4E JUMP JUMPDEST SWAP2 POP PUSH2 0x2302 DUP4 PUSH2 0x1D4E JUMP JUMPDEST SWAP3 POP DUP3 DUP3 ADD SWAP1 POP DUP1 DUP3 GT ISZERO PUSH2 0x231A JUMPI PUSH2 0x2319 PUSH2 0x228D JUMP JUMPDEST JUMPDEST SWAP3 SWAP2 POP POP JUMP JUMPDEST PUSH32 0x696E73756666696369656E742062616C616E6365000000000000000000000000 PUSH0 DUP3 ADD MSTORE POP JUMP JUMPDEST PUSH0 PUSH2 0x2354 PUSH1 0x14 DUP4 PUSH2 0x20DD JUMP JUMPDEST SWAP2 POP PUSH2 0x235F DUP3 PUSH2 0x2320 JUMP JUMPDEST PUSH1 0x20 DUP3 ADD SWAP1 POP SWAP2 SWAP1 POP JUMP JUMPDEST PUSH0 PUSH1 0x20 DUP3 ADD SWAP1 POP DUP2 DUP2 SUB PUSH0 DUP4 ADD MSTORE PUSH2 0x2381 DUP2 PUSH2 0x2348 JUMP JUMPDEST SWAP1 POP SWAP2 SWAP1 POP JUMP JUMPDEST PUSH0 PUSH2 0x2392 DUP3 PUSH2 0x1D4E JUMP JUMPDEST SWAP2 POP PUSH2 0x239D DUP4 PUSH2 0x1D4E JUMP JUMPDEST SWAP3 POP DUP3 DUP3 MUL PUSH2 0x23AB DUP2 PUSH2 0x1D4E JUMP JUMPDEST SWAP2 POP DUP3 DUP3 DIV DUP5 EQ DUP4 ISZERO OR PUSH2 0x23C2 JUMPI PUSH2 0x23C1 PUSH2 0x228D JUMP JUMPDEST JUMPDEST POP SWAP3 SWAP2 POP POP JUMP JUMPDEST PUSH32 0x4E487B7100000000000000000000000000000000000000000000000000000000 PUSH0 MSTORE PUSH1 0x12 PUSH1 0x4 MSTORE PUSH1 0x24 PUSH0 REVERT JUMPDEST PUSH0 PUSH2 0x2400 DUP3 PUSH2 0x1D4E JUMP JUMPDEST SWAP2 POP PUSH2 0x240B DUP4 PUSH2 0x1D4E JUMP JUMPDEST SWAP3 POP DUP3 PUSH2 0x241B JUMPI PUSH2 0x241A PUSH2 0x23C9 JUMP JUMPDEST JUMPDEST DUP3 DUP3 DIV SWAP1 POP SWAP3 SWAP2 POP POP JUMP JUMPDEST PUSH32 0x4E487B7100000000000000000000000000000000000000000000000000000000 PUSH0 MSTORE PUSH1 0x32 PUSH1 0x4 MSTORE PUSH1 0x24 PUSH0 REVERT JUMPDEST PUSH32 0x4E487B7100000000000000000000000000000000000000000000000000000000 PUSH0 MSTORE PUSH1 0x31 PUSH1 0x4 MSTORE PUSH1 0x24 PUSH0 REVERT JUMPDEST PUSH32 0x4E487B7100000000000000000000000000000000000000000000000000000000 PUSH0 MSTORE PUSH1 0x41 PUSH1 0x4 MSTORE PUSH1 0x24 PUSH0 REVERT JUMPDEST PUSH32 0x4C6561736520697320616C726561647920706175736564000000000000000000 PUSH0 DUP3 ADD MSTORE POP JUMP JUMPDEST PUSH0 PUSH2 0x24E1 PUSH1 0x17 DUP4 PUSH2 0x20DD JUMP JUMPDEST SWAP2 POP PUSH2 0x24EC DUP3 PUSH2 0x24AD JUMP JUMPDEST PUSH1 0x20 DUP3 ADD SWAP1 POP SWAP2 SWAP1 POP JUMP JUMPDEST PUSH0 PUSH1 0x20 DUP3 ADD SWAP1 POP DUP2 DUP2 SUB PUSH0 DUP4 ADD MSTORE PUSH2 0x250E DUP2 PUSH2 0x24D5 JUMP JUMPDEST SWAP1 POP SWAP2 SWAP1 POP JUMP JUMPDEST PUSH32 0x7A65726F20747265617375727900000000000000000000000000000000000000 PUSH0 DUP3 ADD MSTORE POP JUMP JUMPDEST PUSH0 PUSH2 0x2549 PUSH1 0xD DUP4 PUSH2 0x20DD JUMP JUMPDEST SWAP2 POP PUSH2 0x2554 DUP3 PUSH2 0x2515 JUMP JUMPDEST PUSH1 0x20 DUP3 ADD SWAP1 POP SWAP2 SWAP1 POP JUMP JUMPDEST PUSH0 PUSH1 0x20 DUP3 ADD SWAP1 POP DUP2 DUP2 SUB PUSH0 DUP4 ADD MSTORE PUSH2 0x2576 DUP2 PUSH2 0x253D JUMP JUMPDEST SWAP1 POP SWAP2 SWAP1 POP JUMP JUMPDEST PUSH32 0x4475726174696F6E206D757374206265203E2030000000000000000000000000 PUSH0 DUP3 ADD MSTORE POP JUMP JUMPDEST PUSH0 PUSH2 0x25B1 PUSH1 0x14 DUP4 PUSH2 0x20DD JUMP JUMPDEST SWAP2 POP PUSH2 0x25BC DUP3 PUSH2 0x257D JUMP JUMPDEST PUSH1 0x20 DUP3 ADD SWAP1 POP SWAP2 SWAP1 POP JUMP JUMPDEST PUSH0 PUSH1 0x20 DUP3 ADD SWAP1 POP DUP2 DUP2 SUB PUSH0 DUP4 ADD MSTORE PUSH2 0x25DE DUP2 PUSH2 0x25A5 JUMP JUMPDEST SWAP1 POP SWAP2 SWAP1 POP JUMP JUMPDEST PUSH32 0x4174206C65617374206F6E65207072696365206D757374206265203E20300000 PUSH0 DUP3 ADD MSTORE POP JUMP JUMPDEST PUSH0 PUSH2 0x2619 PUSH1 0x1E DUP4 PUSH2 0x20DD JUMP JUMPDEST SWAP2 POP PUSH2 0x2624 DUP3 PUSH2 0x25E5 JUMP JUMPDEST PUSH1 0x20 DUP3 ADD SWAP1 POP SWAP2 SWAP1 POP JUMP JUMPDEST PUSH0 PUSH1 0x20 DUP3 ADD SWAP1 POP DUP2 DUP2 SUB PUSH0 DUP4 ADD MSTORE PUSH2 0x2646 DUP2 PUSH2 0x260D JUMP JUMPDEST SWAP1 POP SWAP2 SWAP1 POP JUMP JUMPDEST PUSH32 0x696E76616C696420757365720000000000000000000000000000000000000000 PUSH0 DUP3 ADD MSTORE POP JUMP JUMPDEST PUSH0 PUSH2 0x2681 PUSH1 0xC DUP4 PUSH2 0x20DD JUMP JUMPDEST SWAP2 POP PUSH2 0x268C DUP3 PUSH2 0x264D JUMP JUMPDEST PUSH1 0x20 DUP3 ADD SWAP1 POP SWAP2 SWAP1 POP JUMP JUMPDEST PUSH0 PUSH1 0x20 DUP3 ADD SWAP1 POP DUP2 DUP2 SUB PUSH0 DUP4 ADD MSTORE PUSH2 0x26AE DUP2 PUSH2 0x2675 JUMP JUMPDEST SWAP1 POP SWAP2 SWAP1 POP JUMP JUMPDEST PUSH32 0x696E76616C69642070726F766964657200000000000000000000000000000000 PUSH0 DUP3 ADD MSTORE POP JUMP JUMPDEST PUSH0 PUSH2 0x26E9 PUSH1 0x10 DUP4 PUSH2 0x20DD JUMP JUMPDEST SWAP2 POP PUSH2 0x26F4 DUP3 PUSH2 0x26B5 JUMP JUMPDEST PUSH1 0x20 DUP3 ADD SWAP1 POP SWAP2 SWAP1 POP JUMP JUMPDEST PUSH0 PUSH1 0x20 DUP3 ADD SWAP1 POP DUP2 DUP2 SUB PUSH0 DUP4 ADD MSTORE PUSH2 0x2716 DUP2 PUSH2 0x26DD JUMP JUMPDEST SWAP1 POP SWAP2 SWAP1 POP JUMP JUMPDEST PUSH32 0x496E73756666696369656E7420746F6B656E2062616C616E6365000000000000 PUSH0 DUP3 ADD MSTORE POP JUMP JUMPDEST PUSH0 PUSH2 0x2751 PUSH1 0x1A DUP4 PUSH2 0x20DD JUMP JUMPDEST SWAP2 POP PUSH2 0x275C DUP3 PUSH2 0x271D JUMP JUMPDEST PUSH1 0x20 DUP3 ADD SWAP1 POP SWAP2 SWAP1 POP JUMP JUMPDEST PUSH0 PUSH1 0x20 DUP3 ADD SWAP1 POP DUP2 DUP2 SUB PUSH0 DUP4 ADD MSTORE PUSH2 0x277E DUP2 PUSH2 0x2745 JUMP JUMPDEST SWAP1 POP SWAP2 SWAP1 POP JUMP JUMPDEST PUSH0 PUSH2 0x278F DUP3 PUSH2 0x1D4E JUMP JUMPDEST SWAP2 POP PUSH32 0xFFFFFFFFFFFFFFFFFFFFFFFFFFFFFFFFFFFFFFFFFFFFFFFFFFFFFFFFFFFFFFFF DUP3 SUB PUSH2 0x27C1 JUMPI PUSH2 0x27C0 PUSH2 0x228D JUMP JUMPDEST JUMPDEST PUSH1 0x1 DUP3 ADD SWAP1 POP SWAP2 SWAP1 POP JUMP JUMPDEST PUSH0 PUSH1 0xA0 DUP3 ADD SWAP1 POP PUSH2 0x27DF PUSH0 DUP4 ADD DUP9 PUSH2 0x1D57 JUMP JUMPDEST PUSH2 0x27EC PUSH1 0x20 DUP4 ADD DUP8 PUSH2 0x1DD4 JUMP JUMPDEST PUSH2 0x27F9 PUSH1 0x40 DUP4 ADD DUP7 PUSH2 0x1DD4 JUMP JUMPDEST PUSH2 0x2806 PUSH1 0x60 DUP4 ADD DUP6 PUSH2 0x1D57 JUMP JUMPDEST PUSH2 0x2813 PUSH1 0x80 DUP4 ADD DUP5 PUSH2 0x1D57 JUMP JUMPDEST SWAP7 SWAP6 POP POP POP POP POP POP JUMP JUMPDEST PUSH32 0x4C65617365206E6F742073746172746564000000000000000000000000000000 PUSH0 DUP3 ADD MSTORE POP JUMP JUMPDEST PUSH0 PUSH2 0x2851 PUSH1 0x11 DUP4 PUSH2 0x20DD JUMP JUMPDEST SWAP2 POP PUSH2 0x285C DUP3 PUSH2 0x281D JUMP JUMPDEST PUSH1 0x20 DUP3 ADD SWAP1 POP SWAP2 SWAP1 POP JUMP JUMPDEST PUSH0 PUSH1 0x20 DUP3 ADD SWAP1 POP DUP2 DUP2 SUB PUSH0 DUP4 ADD MSTORE PUSH2 0x287E DUP2 PUSH2 0x2845 JUMP JUMPDEST SWAP1 POP SWAP2 SWAP1 POP JUMP INVALID LOG2 PUSH5 0x6970667358 0x22 SLT KECCAK256 CALLDATALOAD PUSH10 0xAE2BB483A5EC04E27C STATICCALL 0xC DUP15 0x29 PUSH22 0x7EB8C358F3AB1237600BA58F06710064736F6C634300 ADDMOD SHR STOP CALLER "},"methodIdentifiers":{"balances(address)":"27e235e3","completeLease(uint256)":"95e6e242","credit()":"a06d083c","deposit(uint256)":"b6b55f25","frozenFunds(uint256)":"a641992a","getUserFrozenFunds(address)":"97c4d284","leaseCount()":"b4c0498b","leases(uint256)":"8927a106","owner()":"8da5cb5b","pauseLease(uint256)":"b8eeaa78","platformFeePercentage()":"cdd78cfc","renounceOwnership()":"715018a6","resumeLease(uint256)":"18ba11c9","setPlatformFee(uint256)":"12e8e2c3","setTreasury(address)":"f0f44260","startLease(uint256,uint256,uint256,address,address)":"f648da80","transferOwnership(address)":"f2fde38b","treasury()":"61d027b3","userActiveLeases(address,uint256)":"e869a060","userBalance(address)":"0103c92b","withdraw(uint256)":"2e1a7d4d"}}}}}