{
  "_format": "hh3-artifact-1",
  "contractName": "GPULease",
  "sourceName": "contracts/GPULease.sol",
  "abi": [
    {
      "inputs": [
        {
          "internalType": "address",
          "name": "credit_",
          "type": "address"
        },
        {
          "internalType": "address",
          "name": "treasury_",
          "type": "address"
        }
      ],
      "stateMutability": "nonpayable",
      "type": "constructor"
    },
    {
      "inputs": [
        {
          "internalType": "address",
          "name": "owner",
          "type": "address"
        }
      ],
      "name": "OwnableInvalidOwner",
      "type": "error"
    },
    {
      "inputs": [
        {
          "internalType": "address",
          "name": "account",
          "type": "address"
        }
      ],
      "name": "OwnableUnauthorizedAccount",
      "type": "error"
    },
    {
      "inputs": [
        {
          "internalType": "address",
          "name": "token",
          "type": "address"
        }
      ],
      "name": "SafeERC20FailedOperation",
      "type": "error"
    },
    {
      "anonymous": false,
      "inputs": [
        {
          "indexed": true,
          "internalType": "address",
          "name": "user",
          "type": "address"
        },
        {
          "indexed": false,
          "internalType": "uint256",
          "name": "amount",
          "type": "uint256"
        }
      ],
      "name": "Deposit",
      "type": "event"
    },
    {
      "anonymous": false,
      "inputs": [
        {
          "indexed": false,
          "internalType": "uint256",
          "name": "leaseId",
          "type": "uint256"
        }
      ],
      "name": "LeaseCompleted",
      "type": "event"
    },
    {
      "anonymous": false,
      "inputs": [
        {
          "indexed": false,
          "internalType": "uint256",
          "name": "leaseId",
          "type": "uint256"
        }
      ],
      "name": "LeasePaused",
      "type": "event"
    },
    {
      "anonymous": false,
      "inputs": [
        {
          "indexed": false,
          "internalType": "uint256",
          "name": "leaseId",
          "type": "uint256"
        }
      ],
      "name": "LeaseResumed",
      "type": "event"
    },
    {
      "anonymous": false,
      "inputs": [
        {
          "indexed": false,
          "internalType": "uint256",
          "name": "leaseId",
          "type": "uint256"
        },
        {
          "indexed": false,
          "internalType": "address",
          "name": "user",
          "type": "address"
        },
        {
          "indexed": false,
          "internalType": "address",
          "name": "provider",
          "type": "address"
        },
        {
          "indexed": false,
          "internalType": "uint256",
          "name": "duration",
          "type": "uint256"
        },
        {
          "indexed": false,
          "internalType": "uint256",
          "name": "amount",
          "type": "uint256"
        }
      ],
      "name": "LeaseStarted",
      "type": "event"
    },
    {
      "anonymous": false,
      "inputs": [
        {
          "indexed": true,
          "internalType": "address",
          "name": "previousOwner",
          "type": "address"
        },
        {
          "indexed": true,
          "internalType": "address",
          "name": "newOwner",
          "type": "address"
        }
      ],
      "name": "OwnershipTransferred",
      "type": "event"
    },
    {
      "anonymous": false,
      "inputs": [
        {
          "indexed": true,
          "internalType": "address",
          "name": "user",
          "type": "address"
        },
        {
          "indexed": false,
          "internalType": "uint256",
          "name": "amount",
          "type": "uint256"
        }
      ],
      "name": "Withdraw",
      "type": "event"
    },
    {
      "inputs": [
        {
          "internalType": "address",
          "name": "",
          "type": "address"
        }
      ],
      "name": "balances",
      "outputs": [
        {
          "internalType": "uint256",
          "name": "",
          "type": "uint256"
        }
      ],
      "stateMutability": "view",
      "type": "function"
    },
    {
      "inputs": [
        {
          "internalType": "uint256",
          "name": "_leaseId",
          "type": "uint256"
        }
      ],
      "name": "completeLease",
      "outputs": [],
      "stateMutability": "nonpayable",
      "type": "function"
    },
    {
      "inputs": [],
      "name": "credit",
      "outputs": [
        {
          "internalType": "contract IERC20",
          "name": "",
          "type": "address"
        }
      ],
      "stateMutability": "view",
      "type": "function"
    },
    {
      "inputs": [
        {
          "internalType": "uint256",
          "name": "amount",
          "type": "uint256"
        }
      ],
      "name": "deposit",
      "outputs": [],
      "stateMutability": "nonpayable",
      "type": "function"
    },
    {
      "inputs": [
        {
          "internalType": "uint256",
          "name": "",
          "type": "uint256"
        }
      ],
      "name": "frozenFunds",
      "outputs": [
        {
          "internalType": "uint256",
          "name": "",
          "type": "uint256"
        }
      ],
      "stateMutability": "view",
      "type": "function"
    },
    {
      "inputs": [
        {
          "internalType": "address",
          "name": "user",
          "type": "address"
        }
      ],
      "name": "getUserFrozenFunds",
      "outputs": [
        {
          "components": [
            {
              "internalType": "uint256",
              "name": "leaseId",
              "type": "uint256"
            },
            {
              "internalType": "uint256",
              "name": "amount",
              "type": "uint256"
            }
          ],
          "internalType": "struct GPULease.FrozenFundsInfo[]",
          "name": "result",
          "type": "tuple[]"
        }
      ],
      "stateMutability": "view",
      "type": "function"
    },
    {
      "inputs": [],
      "name": "leaseCount",
      "outputs": [
        {
          "internalType": "uint256",
          "name": "",
          "type": "uint256"
        }
      ],
      "stateMutability": "view",
      "type": "function"
    },
    {
      "inputs": [
        {
          "internalType": "uint256",
          "name": "",
          "type": "uint256"
        }
      ],
      "name": "leases",
      "outputs": [
        {
          "internalType": "address",
          "name": "user",
          "type": "address"
        },
        {
          "internalType": "address",
          "name": "provider",
          "type": "address"
        },
        {
          "internalType": "uint256",
          "name": "startTime",
          "type": "uint256"
        },
        {
          "internalType": "uint256",
          "name": "storagePricePerSecond",
          "type": "uint256"
        },
        {
          "internalType": "uint256",
          "name": "computePricePerSecond",
          "type": "uint256"
        },
        {
          "internalType": "bool",
          "name": "active",
          "type": "bool"
        },
        {
          "internalType": "bool",
          "name": "completed",
          "type": "bool"
        },
        {
          "internalType": "bool",
          "name": "paused",
          "type": "bool"
        },
        {
          "internalType": "uint256",
          "name": "pausedAt",
          "type": "uint256"
        },
        {
          "internalType": "uint256",
          "name": "pausedDuration",
          "type": "uint256"
        }
      ],
      "stateMutability": "view",
      "type": "function"
    },
    {
      "inputs": [],
      "name": "owner",
      "outputs": [
        {
          "internalType": "address",
          "name": "",
          "type": "address"
        }
      ],
      "stateMutability": "view",
      "type": "function"
    },
    {
      "inputs": [
        {
          "internalType": "uint256",
          "name": "_leaseId",
          "type": "uint256"
        }
      ],
      "name": "pauseLease",
      "outputs": [],
      "stateMutability": "nonpayable",
      "type": "function"
    },
    {
      "inputs": [],
      "name": "platformFeePercentage",
      "outputs": [
        {
          "internalType": "uint256",
          "name": "",
          "type": "uint256"
        }
      ],
      "stateMutability": "view",
      "type": "function"
    },
    {
      "inputs": [],
      "name": "renounceOwnership",
      "outputs": [],
      "stateMutability": "nonpayable",
      "type": "function"
    },
    {
      "inputs": [
        {
          "internalType": "uint256",
          "name": "_leaseId",
          "type": "uint256"
        }
      ],
      "name": "resumeLease",
      "outputs": [],
      "stateMutability": "nonpayable",
      "type": "function"
    },
    {
      "inputs": [
        {
          "internalType": "uint256",
          "name": "_feePercentage",
          "type": "uint256"
        }
      ],
      "name": "setPlatformFee",
      "outputs": [],
      "stateMutability": "nonpayable",
      "type": "function"
    },
    {
      "inputs": [
        {
          "internalType": "address",
          "name": "newTreasury",
          "type": "address"
        }
      ],
      "name": "setTreasury",
      "outputs": [],
      "stateMutability": "nonpayable",
      "type": "function"
    },
    {
      "inputs": [
        {
          "internalType": "uint256",
          "name": "_duration",
          "type": "uint256"
        },
        {
          "internalType": "uint256",
          "name": "_storagePricePerSecond",
          "type": "uint256"
        },
        {
          "internalType": "uint256",
          "name": "_computePricePerSecond",
          "type": "uint256"
        },
        {
          "internalType": "address",
          "name": "_provider",
          "type": "address"
        },
        {
          "internalType": "address",
          "name": "_user",
          "type": "address"
        }
      ],
      "name": "startLease",
      "outputs": [
        {
          "internalType": "uint256",
          "name": "leaseId",
          "type": "uint256"
        }
      ],
      "stateMutability": "nonpayable",
      "type": "function"
    },
    {
      "inputs": [
        {
          "internalType": "address",
          "name": "newOwner",
          "type": "address"
        }
      ],
      "name": "transferOwnership",
      "outputs": [],
      "stateMutability": "nonpayable",
      "type": "function"
    },
    {
      "inputs": [],
      "name": "treasury",
      "outputs": [
        {
          "internalType": "address",
          "name": "",
          "type": "address"
        }
      ],
      "stateMutability": "view",
      "type": "function"
    },
    {
      "inputs": [
        {
          "internalType": "address",
          "name": "",
          "type": "address"
        },
        {
          "internalType": "uint256",
          "name": "",
          "type": "uint256"
        }
      ],
      "name": "userActiveLeases",
      "outputs": [
        {
          "internalType": "uint256",
          "name": "",
          "type": "uint256"
        }
      ],
      "stateMutability": "view",
      "type": "function"
    },
    {
      "inputs": [
        {
          "internalType": "address",
          "name": "user",
          "type": "address"
        }
      ],
      "name": "userBalance",
      "outputs": [
        {
          "internalType": "uint256",
          "name": "",
          "type": "uint256"
        }
      ],
      "stateMutability": "view",
      "type": "function"
    },
    {
      "inputs": [
        {
          "internalType": "uint256",
          "name": "amount",
          "type": "uint256"
        }
      ],
      "name": "withdraw",
      "outputs": [],
      "stateMutability": "nonpayable",
      "type": "function"
    }
  ],
  "bytecode": "0x60806040525f6007556005600855348015610018575f5ffd5b50604051612b8f380380612b8f833981810160405281019061003a9190610261565b335f73ffffffffffffffffffffffffffffffffffffffff168173ffffffffffffffffffffffffffffffffffffffff16036100ab575f6040517f1e4fbdf70000000000000000000000000000000000000000000000000000000081526004016100a291906102ae565b60405180910390fd5b6100ba8161014260201b60201c565b508160015f6101000a81548173ffffffffffffffffffffffffffffffffffffffff021916908373ffffffffffffffffffffffffffffffffffffffff1602179055508060025f6101000a81548173ffffffffffffffffffffffffffffffffffffffff021916908373ffffffffffffffffffffffffffffffffffffffff16021790555050506102c7565b5f5f5f9054906101000a900473ffffffffffffffffffffffffffffffffffffffff169050815f5f6101000a81548173ffffffffffffffffffffffffffffffffffffffff021916908373ffffffffffffffffffffffffffffffffffffffff1602179055508173ffffffffffffffffffffffffffffffffffffffff168173ffffffffffffffffffffffffffffffffffffffff167f8be0079c531659141344cd1fd0a4f28419497f9722a3daafe3b4186f6b6457e060405160405180910390a35050565b5f5ffd5b5f73ffffffffffffffffffffffffffffffffffffffff82169050919050565b5f61023082610207565b9050919050565b61024081610226565b811461024a575f5ffd5b50565b5f8151905061025b81610237565b92915050565b5f5f6040838503121561027757610276610203565b5b5f6102848582860161024d565b92505060206102958582860161024d565b9150509250929050565b6102a881610226565b82525050565b5f6020820190506102c15f83018461029f565b92915050565b6128bb806102d45f395ff3fe608060405234801561000f575f5ffd5b5060043610610135575f3560e01c806397c4d284116100b6578063b8eeaa781161007a578063b8eeaa7814610340578063cdd78cfc1461035c578063e869a0601461037a578063f0f44260146103aa578063f2fde38b146103c6578063f648da80146103e257610135565b806397c4d28414610288578063a06d083c146102b8578063a641992a146102d6578063b4c0498b14610306578063b6b55f251461032457610135565b806361d027b3116100fd57806361d027b3146101ed578063715018a61461020b5780638927a106146102155780638da5cb5b1461024e57806395e6e2421461026c57610135565b80630103c92b1461013957806312e8e2c31461016957806318ba11c91461018557806327e235e3146101a15780632e1a7d4d146101d1575b5f5ffd5b610153600480360381019061014e9190611d23565b610412565b6040516101609190611d66565b60405180910390f35b610183600480360381019061017e9190611da9565b610458565b005b61019f600480360381019061019a9190611da9565b6104ae565b005b6101bb60048036038101906101b69190611d23565b61064b565b6040516101c89190611d66565b60405180910390f35b6101eb60048036038101906101e69190611da9565b610660565b005b6101f56107d0565b6040516102029190611de3565b60405180910390f35b6102136107f5565b005b61022f600480360381019061022a9190611da9565b610808565b6040516102459a99989796959493929190611e16565b60405180910390f35b6102566108bc565b6040516102639190611de3565b60405180910390f35b61028660048036038101906102819190611da9565b6108e3565b005b6102a2600480360381019061029d9190611d23565b610d66565b6040516102af9190611f94565b60405180910390f35b6102c0610e8b565b6040516102cd919061200f565b60405180910390f35b6102f060048036038101906102eb9190611da9565b610eb0565b6040516102fd9190611d66565b60405180910390f35b61030e610ec5565b60405161031b9190611d66565b60405180910390f35b61033e60048036038101906103399190611da9565b610ecb565b005b61035a60048036038101906103559190611da9565b610fbd565b005b61036461112e565b6040516103719190611d66565b60405180910390f35b610394600480360381019061038f9190612028565b611134565b6040516103a19190611d66565b60405180910390f35b6103c460048036038101906103bf9190611d23565b61115f565b005b6103e060048036038101906103db9190611d23565b6112fc565b005b6103fc60048036038101906103f79190612066565b611380565b6040516104099190611d66565b60405180910390f35b5f60045f8373ffffffffffffffffffffffffffffffffffffffff1673ffffffffffffffffffffffffffffffffffffffff1681526020019081526020015f20549050919050565b6104606118ed565b60648111156104a4576040517f08c379a000000000000000000000000000000000000000000000000000000000815260040161049b90612137565b60405180910390fd5b8060088190555050565b6104b66118ed565b5f60065f8381526020019081526020015f209050806005015f9054906101000a900460ff1661051a576040517f08c379a00000000000000000000000000000000000000000000000000000000081526004016105119061219f565b60405180910390fd5b8060050160019054906101000a900460ff161561056c576040517f08c379a000000000000000000000000000000000000000000000000000000000815260040161056390612207565b60405180910390fd5b8060050160029054906101000a900460ff166105bd576040517f08c379a00000000000000000000000000000000000000000000000000000000081526004016105b49061226f565b60405180910390fd5b5f8160060154426105ce91906122ba565b905080826007015f8282546105e391906122ed565b925050819055505f82600601819055505f8260050160026101000a81548160ff0219169083151502179055507f0ec1e889672cca90b2287dde9161b83295c31ef8ed2a8bd943a7f04b183f91678360405161063e9190611d66565b60405180910390a1505050565b6004602052805f5260405f205f915090505481565b8060045f3373ffffffffffffffffffffffffffffffffffffffff1673ffffffffffffffffffffffffffffffffffffffff1681526020019081526020015f205410156106e0576040517f08c379a00000000000000000000000000000000000000000000000000000000081526004016106d79061236a565b60405180910390fd5b61072c338260015f9054906101000a900473ffffffffffffffffffffffffffffffffffffffff1673ffffffffffffffffffffffffffffffffffffffff166119749092919063ffffffff16565b8060045f3373ffffffffffffffffffffffffffffffffffffffff1673ffffffffffffffffffffffffffffffffffffffff1681526020019081526020015f205f82825461077891906122ba565b925050819055503373ffffffffffffffffffffffffffffffffffffffff167f884edad9ce6fa2440d8a54cc123490eb96d2768479d49ff9c7366125a9424364826040516107c59190611d66565b60405180910390a250565b60025f9054906101000a900473ffffffffffffffffffffffffffffffffffffffff1681565b6107fd6118ed565b6108065f6119c7565b565b6006602052805f5260405f205f91509050805f015f9054906101000a900473ffffffffffffffffffffffffffffffffffffffff1690806001015f9054906101000a900473ffffffffffffffffffffffffffffffffffffffff1690806002015490806003015490806004015490806005015f9054906101000a900460ff16908060050160019054906101000a900460ff16908060050160029054906101000a900460ff1690806006015490806007015490508a565b5f5f5f9054906101000a900473ffffffffffffffffffffffffffffffffffffffff16905090565b6108eb6118ed565b5f60065f8381526020019081526020015f209050806005015f9054906101000a900460ff1661094f576040517f08c379a00000000000000000000000000000000000000000000000000000000081526004016109469061219f565b60405180910390fd5b8060050160019054906101000a900460ff16156109a1576040517f08c379a000000000000000000000000000000000000000000000000000000000815260040161099890612207565b60405180910390fd5b5f5f6109ac84611a88565b80925081935050505f81836109c191906122ed565b90505f6064600854836109d49190612388565b6109de91906123f6565b90508060045f60025f9054906101000a900473ffffffffffffffffffffffffffffffffffffffff1673ffffffffffffffffffffffffffffffffffffffff1673ffffffffffffffffffffffffffffffffffffffff1681526020019081526020015f205f828254610a4d91906122ed565b925050819055508060055f8881526020019081526020015f205f828254610a7491906122ba565b925050819055505f8183610a8891906122ba565b90508060045f886001015f9054906101000a900473ffffffffffffffffffffffffffffffffffffffff1673ffffffffffffffffffffffffffffffffffffffff1673ffffffffffffffffffffffffffffffffffffffff1681526020019081526020015f205f828254610af991906122ed565b925050819055508060055f8981526020019081526020015f205f828254610b2091906122ba565b9250508190555060055f8881526020019081526020015f205460045f885f015f9054906101000a900473ffffffffffffffffffffffffffffffffffffffff1673ffffffffffffffffffffffffffffffffffffffff1673ffffffffffffffffffffffffffffffffffffffff1681526020019081526020015f205f828254610ba691906122ed565b9250508190555060055f8881526020019081526020015f205f905560018660050160016101000a81548160ff0219169083151502179055505f866005015f6101000a81548160ff0219169083151502179055505f60065f8981526020019081526020015f205f015f9054906101000a900473ffffffffffffffffffffffffffffffffffffffff1690505f60035f8373ffffffffffffffffffffffffffffffffffffffff1673ffffffffffffffffffffffffffffffffffffffff1681526020019081526020015f2090505f5f90505b8180549050811015610d235789828281548110610c9457610c93612426565b5b905f5260205f20015403610d16578160018380549050610cb491906122ba565b81548110610cc557610cc4612426565b5b905f5260205f200154828281548110610ce157610ce0612426565b5b905f5260205f20018190555081805480610cfe57610cfd612453565b5b600190038181905f5260205f20015f90559055610d23565b8080600101915050610c74565b507f5a1241b1f059ce7cc7acee21bf522f44360638a58f17c58bd390a0f0af7e193789604051610d539190611d66565b60405180910390a1505050505050505050565b60605f60035f8473ffffffffffffffffffffffffffffffffffffffff1673ffffffffffffffffffffffffffffffffffffffff1681526020019081526020015f209050808054905067ffffffffffffffff811115610dc657610dc5612480565b5b604051908082528060200260200182016040528015610dff57816020015b610dec611cad565b815260200190600190039081610de45790505b5091505f5f90505b8180549050811015610e84575f828281548110610e2757610e26612426565b5b905f5260205f2001549050604051806040016040528082815260200160055f8481526020019081526020015f2054815250848381518110610e6b57610e6a612426565b5b6020026020010181905250508080600101915050610e07565b5050919050565b60015f9054906101000a900473ffffffffffffffffffffffffffffffffffffffff1681565b6005602052805f5260405f205f915090505481565b60075481565b610f1933308360015f9054906101000a900473ffffffffffffffffffffffffffffffffffffffff1673ffffffffffffffffffffffffffffffffffffffff16611b7e909392919063ffffffff16565b8060045f3373ffffffffffffffffffffffffffffffffffffffff1673ffffffffffffffffffffffffffffffffffffffff1681526020019081526020015f205f828254610f6591906122ed565b925050819055503373ffffffffffffffffffffffffffffffffffffffff167fe1fffcc4923d04b559f4d29a8bfc6cda04eb5b0d3c460751c2402c5c5cc9109c82604051610fb29190611d66565b60405180910390a250565b610fc56118ed565b5f60065f8381526020019081526020015f209050806005015f9054906101000a900460ff16611029576040517f08c379a00000000000000000000000000000000000000000000000000000000081526004016110209061219f565b60405180910390fd5b8060050160019054906101000a900460ff161561107b576040517f08c379a000000000000000000000000000000000000000000000000000000000815260040161107290612207565b60405180910390fd5b8060050160029054906101000a900460ff16156110cd576040517f08c379a00000000000000000000000000000000000000000000000000000000081526004016110c4906124f7565b60405180910390fd5b42816006018190555060018160050160026101000a81548160ff0219169083151502179055507fb04140f2785e8aa46842b88fdbee148f5bcd51a8e9c4b367b7f431e80a6ed5a1826040516111229190611d66565b60405180910390a15050565b60085481565b6003602052815f5260405f20818154811061114d575f80fd5b905f5260205f20015f91509150505481565b6111676118ed565b5f73ffffffffffffffffffffffffffffffffffffffff168173ffffffffffffffffffffffffffffffffffffffff16036111d5576040517f08c379a00000000000000000000000000000000000000000000000000000000081526004016111cc9061255f565b60405180910390fd5b5f61120060025f9054906101000a900473ffffffffffffffffffffffffffffffffffffffff16610412565b90508060045f8473ffffffffffffffffffffffffffffffffffffffff1673ffffffffffffffffffffffffffffffffffffffff1681526020019081526020015f205f82825461124e91906122ed565b925050819055505f60045f60025f9054906101000a900473ffffffffffffffffffffffffffffffffffffffff1673ffffffffffffffffffffffffffffffffffffffff1673ffffffffffffffffffffffffffffffffffffffff1681526020019081526020015f20819055508160025f6101000a81548173ffffffffffffffffffffffffffffffffffffffff021916908373ffffffffffffffffffffffffffffffffffffffff1602179055505050565b6113046118ed565b5f73ffffffffffffffffffffffffffffffffffffffff168173ffffffffffffffffffffffffffffffffffffffff1603611374575f6040517f1e4fbdf700000000000000000000000000000000000000000000000000000000815260040161136b9190611de3565b60405180910390fd5b61137d816119c7565b50565b5f6113896118ed565b5f86116113cb576040517f08c379a00000000000000000000000000000000000000000000000000000000081526004016113c2906125c7565b60405180910390fd5b5f8511806113d857505f84115b611417576040517f08c379a000000000000000000000000000000000000000000000000000000000815260040161140e9061262f565b60405180910390fd5b5f73ffffffffffffffffffffffffffffffffffffffff168273ffffffffffffffffffffffffffffffffffffffff1603611485576040517f08c379a000000000000000000000000000000000000000000000000000000000815260040161147c90612697565b60405180910390fd5b5f73ffffffffffffffffffffffffffffffffffffffff168373ffffffffffffffffffffffffffffffffffffffff16036114f3576040517f08c379a00000000000000000000000000000000000000000000000000000000081526004016114ea906126ff565b60405180910390fd5b5f85876115009190612388565b90505f858861150f9190612388565b90505f818361151e91906122ed565b90505f6064600854836115319190612388565b61153b91906123f6565b9050808261154991906122ed565b91508160045f8873ffffffffffffffffffffffffffffffffffffffff1673ffffffffffffffffffffffffffffffffffffffff1681526020019081526020015f205410156115cb576040517f08c379a00000000000000000000000000000000000000000000000000000000081526004016115c290612767565b60405180910390fd5b8160045f8873ffffffffffffffffffffffffffffffffffffffff1673ffffffffffffffffffffffffffffffffffffffff1681526020019081526020015f205461161491906122ba565b60045f8873ffffffffffffffffffffffffffffffffffffffff1673ffffffffffffffffffffffffffffffffffffffff1681526020019081526020015f20819055508160055f60075481526020019081526020015f2081905550600754945060075f81548092919061168490612785565b91905055506040518061014001604052808773ffffffffffffffffffffffffffffffffffffffff1681526020018873ffffffffffffffffffffffffffffffffffffffff16815260200161012c426116db91906122ba565b81526020018a81526020018981526020016001151581526020015f151581526020015f151581526020015f81526020015f81525060065f8781526020019081526020015f205f820151815f015f6101000a81548173ffffffffffffffffffffffffffffffffffffffff021916908373ffffffffffffffffffffffffffffffffffffffff1602179055506020820151816001015f6101000a81548173ffffffffffffffffffffffffffffffffffffffff021916908373ffffffffffffffffffffffffffffffffffffffff16021790555060408201518160020155606082015181600301556080820151816004015560a0820151816005015f6101000a81548160ff02191690831515021790555060c08201518160050160016101000a81548160ff02191690831515021790555060e08201518160050160026101000a81548160ff0219169083151502179055506101008201518160060155610120820151816007015590505060035f8773ffffffffffffffffffffffffffffffffffffffff1673ffffffffffffffffffffffffffffffffffffffff1681526020019081526020015f2085908060018154018082558091505060019003905f5260205f20015f90919091909150557f4501059f1dbad8e151132c2515ee7ea78d4b2540b9e56e941a03fdb9888efe288587898d866040516118d89594939291906127cc565b60405180910390a15050505095945050505050565b6118f5611bd3565b73ffffffffffffffffffffffffffffffffffffffff166119136108bc565b73ffffffffffffffffffffffffffffffffffffffff161461197257611936611bd3565b6040517f118cdaa70000000000000000000000000000000000000000000000000000000081526004016119699190611de3565b60405180910390fd5b565b6119818383836001611bda565b6119c257826040517f5274afe70000000000000000000000000000000000000000000000000000000081526004016119b99190611de3565b60405180910390fd5b505050565b5f5f5f9054906101000a900473ffffffffffffffffffffffffffffffffffffffff169050815f5f6101000a81548173ffffffffffffffffffffffffffffffffffffffff021916908373ffffffffffffffffffffffffffffffffffffffff1602179055508173ffffffffffffffffffffffffffffffffffffffff168173ffffffffffffffffffffffffffffffffffffffff167f8be0079c531659141344cd1fd0a4f28419497f9722a3daafe3b4186f6b6457e060405160405180910390a35050565b5f5f5f60065f8581526020019081526020015f2090505f816002015411611ae4576040517f08c379a0000000000000000000000000000000000000000000000000000000008152600401611adb90612867565b60405180910390fd5b5f816002015442611af591906122ba565b90505f826007015490508260050160029054906101000a900460ff1615611b3457826006015442611b2691906122ba565b81611b3191906122ed565b90505b826003015482611b449190612388565b94505f818311611b54575f611b61565b8183611b6091906122ba565b5b9050836004015481611b739190612388565b945050505050915091565b611b8c848484846001611c3c565b611bcd57836040517f5274afe7000000000000000000000000000000000000000000000000000000008152600401611bc49190611de3565b60405180910390fd5b50505050565b5f33905090565b5f5f63a9059cbb60e01b9050604051815f525f1960601c86166004528460245260205f60445f5f8b5af1925060015f51148316611c2e578383151615611c22573d5f823e3d81fd5b5f873b113d1516831692505b806040525050949350505050565b5f5f6323b872dd60e01b9050604051815f525f1960601c87166004525f1960601c86166024528460445260205f60645f5f8c5af1925060015f51148316611c9a578383151615611c8e573d5f823e3d81fd5b5f883b113d1516831692505b806040525f606052505095945050505050565b60405180604001604052805f81526020015f81525090565b5f5ffd5b5f73ffffffffffffffffffffffffffffffffffffffff82169050919050565b5f611cf282611cc9565b9050919050565b611d0281611ce8565b8114611d0c575f5ffd5b50565b5f81359050611d1d81611cf9565b92915050565b5f60208284031215611d3857611d37611cc5565b5b5f611d4584828501611d0f565b91505092915050565b5f819050919050565b611d6081611d4e565b82525050565b5f602082019050611d795f830184611d57565b92915050565b611d8881611d4e565b8114611d92575f5ffd5b50565b5f81359050611da381611d7f565b92915050565b5f60208284031215611dbe57611dbd611cc5565b5b5f611dcb84828501611d95565b91505092915050565b611ddd81611ce8565b82525050565b5f602082019050611df65f830184611dd4565b92915050565b5f8115159050919050565b611e1081611dfc565b82525050565b5f61014082019050611e2a5f83018d611dd4565b611e37602083018c611dd4565b611e44604083018b611d57565b611e51606083018a611d57565b611e5e6080830189611d57565b611e6b60a0830188611e07565b611e7860c0830187611e07565b611e8560e0830186611e07565b611e93610100830185611d57565b611ea1610120830184611d57565b9b9a5050505050505050505050565b5f81519050919050565b5f82825260208201905092915050565b5f819050602082019050919050565b611ee281611d4e565b82525050565b604082015f820151611efc5f850182611ed9565b506020820151611f0f6020850182611ed9565b50505050565b5f611f208383611ee8565b60408301905092915050565b5f602082019050919050565b5f611f4282611eb0565b611f4c8185611eba565b9350611f5783611eca565b805f5b83811015611f87578151611f6e8882611f15565b9750611f7983611f2c565b925050600181019050611f5a565b5085935050505092915050565b5f6020820190508181035f830152611fac8184611f38565b905092915050565b5f819050919050565b5f611fd7611fd2611fcd84611cc9565b611fb4565b611cc9565b9050919050565b5f611fe882611fbd565b9050919050565b5f611ff982611fde565b9050919050565b61200981611fef565b82525050565b5f6020820190506120225f830184612000565b92915050565b5f5f6040838503121561203e5761203d611cc5565b5b5f61204b85828601611d0f565b925050602061205c85828601611d95565b9150509250929050565b5f5f5f5f5f60a0868803121561207f5761207e611cc5565b5b5f61208c88828901611d95565b955050602061209d88828901611d95565b94505060406120ae88828901611d95565b93505060606120bf88828901611d0f565b92505060806120d088828901611d0f565b9150509295509295909350565b5f82825260208201905092915050565b7f46656520746f6f206869676800000000000000000000000000000000000000005f82015250565b5f612121600c836120dd565b915061212c826120ed565b602082019050919050565b5f6020820190508181035f83015261214e81612115565b9050919050565b7f4c65617365206973206e6f7420616374697665000000000000000000000000005f82015250565b5f6121896013836120dd565b915061219482612155565b602082019050919050565b5f6020820190508181035f8301526121b68161217d565b9050919050565b7f4c6561736520616c726561647920636f6d706c657465640000000000000000005f82015250565b5f6121f16017836120dd565b91506121fc826121bd565b602082019050919050565b5f6020820190508181035f83015261221e816121e5565b9050919050565b7f4c65617365206973206e6f7420706175736564000000000000000000000000005f82015250565b5f6122596013836120dd565b915061226482612225565b602082019050919050565b5f6020820190508181035f8301526122868161224d565b9050919050565b7f4e487b71000000000000000000000000000000000000000000000000000000005f52601160045260245ffd5b5f6122c482611d4e565b91506122cf83611d4e565b92508282039050818111156122e7576122e661228d565b5b92915050565b5f6122f782611d4e565b915061230283611d4e565b925082820190508082111561231a5761231961228d565b5b92915050565b7f696e73756666696369656e742062616c616e63650000000000000000000000005f82015250565b5f6123546014836120dd565b915061235f82612320565b602082019050919050565b5f6020820190508181035f83015261238181612348565b9050919050565b5f61239282611d4e565b915061239d83611d4e565b92508282026123ab81611d4e565b915082820484148315176123c2576123c161228d565b5b5092915050565b7f4e487b71000000000000000000000000000000000000000000000000000000005f52601260045260245ffd5b5f61240082611d4e565b915061240b83611d4e565b92508261241b5761241a6123c9565b5b828204905092915050565b7f4e487b71000000000000000000000000000000000000000000000000000000005f52603260045260245ffd5b7f4e487b71000000000000000000000000000000000000000000000000000000005f52603160045260245ffd5b7f4e487b71000000000000000000000000000000000000000000000000000000005f52604160045260245ffd5b7f4c6561736520697320616c7265616479207061757365640000000000000000005f82015250565b5f6124e16017836120dd565b91506124ec826124ad565b602082019050919050565b5f6020820190508181035f83015261250e816124d5565b9050919050565b7f7a65726f207472656173757279000000000000000000000000000000000000005f82015250565b5f612549600d836120dd565b915061255482612515565b602082019050919050565b5f6020820190508181035f8301526125768161253d565b9050919050565b7f4475726174696f6e206d757374206265203e20300000000000000000000000005f82015250565b5f6125b16014836120dd565b91506125bc8261257d565b602082019050919050565b5f6020820190508181035f8301526125de816125a5565b9050919050565b7f4174206c65617374206f6e65207072696365206d757374206265203e203000005f82015250565b5f612619601e836120dd565b9150612624826125e5565b602082019050919050565b5f6020820190508181035f8301526126468161260d565b9050919050565b7f696e76616c6964207573657200000000000000000000000000000000000000005f82015250565b5f612681600c836120dd565b915061268c8261264d565b602082019050919050565b5f6020820190508181035f8301526126ae81612675565b9050919050565b7f696e76616c69642070726f7669646572000000000000000000000000000000005f82015250565b5f6126e96010836120dd565b91506126f4826126b5565b602082019050919050565b5f6020820190508181035f830152612716816126dd565b9050919050565b7f496e73756666696369656e7420746f6b656e2062616c616e63650000000000005f82015250565b5f612751601a836120dd565b915061275c8261271d565b602082019050919050565b5f6020820190508181035f83015261277e81612745565b9050919050565b5f61278f82611d4e565b91507fffffffffffffffffffffffffffffffffffffffffffffffffffffffffffffffff82036127c1576127c061228d565b5b600182019050919050565b5f60a0820190506127df5f830188611d57565b6127ec6020830187611dd4565b6127f96040830186611dd4565b6128066060830185611d57565b6128136080830184611d57565b9695505050505050565b7f4c65617365206e6f7420737461727465640000000000000000000000000000005f82015250565b5f6128516011836120dd565b915061285c8261281d565b602082019050919050565b5f6020820190508181035f83015261287e81612845565b905091905056fea2646970667358221220356900ae2bb483a5ec04e27cfa0c8e29757eb8c358f3ab1237600ba58f06710064736f6c634300081c0033",
  "linkReferences": {},
  "deployedLinkReferences": {},
  "immutableReferences": {},
  "inputSourceName": "project/contracts/GPULease.sol",
  "buildInfoId": "solc-0_8_28-a7bcbf7bc41d8fcf2d9f1eefea88aa5b6a59eea6"
}